:020000040800F2
:10000000B02B0020C1010008E94C0008EB4C0008AF
:10001000EF4C0008F34C0008F74C0008000000000B
:10002000000000000000000000000000FB4C000881
:10003000FD4C000800000000FF4C0008034D0008C4
:10004000DB010008DB010008DB010008DB01000820
:10005000DB010008DB010008DB010008DB01000810
:10006000DB010008DB010008DB010008DB01000800
:10007000DB010008DB010008DB010008DB010008F0
:10008000DB010008DB010008DB010008DB010008E0
:10009000DB010008DB010008DB010008DB010008D0
:1000A000DB010008DB010008DB010008DB010008C0
:1000B000DB010008DB010008DB010008DB010008B0
:1000C000DB010008DB010008DB010008DB010008A0
:1000D000DB010008DB010008DB010008DB01000890
:1000E000DB010008DB010008DB010008DB01000880
:1000F000DB010008DB010008DB010008DB01000870
:10010000DB010008DB010008DB010008DB0100085F
:10011000DB010008DB010008DB010008DB0100084F
:10012000DB010008DB010008DB010008DB0100083F
:10013000DB010008DB010008DB010008DB0100082F
:10014000DB010008DB010008DB0100083343000885
:10015000DB010008DB010008DB010008DB0100080F
:10016000DB010008DB010008DB010008DB010008FF
:10017000DB0100083D430008DB010008DB0100084B
:10018000DB010008DB010008DB010008DB010008DF
:10019000DB010008DB010008DB010008DB010008CF
:1001A000DB010008DB010008DB010008DFF80CD0F0
:1001B00005F07EFF00480047294C0008B02B0020C6
:1001C0000648804706480047FEE7FEE7FEE7FEE7F1
:1001D000FEE7FEE7FEE7FEE7FEE7FEE70D4D00085F
:1001E000AD010008704770B50446714800684FF4CF
:1001F0007A71B0FBF1F5284600F082F90022214621
:10020000501E00F007F9002070BD10B56948006865
:1002100040F40070674908600846006840F4806058
:1002200008600846006840F480700860032000F011
:10023000DFF80F20FFF7D7FF00F07AFC002010BD99
:10024000704710B54FF0FF305B4908600020086030
:10025000401E091D086000200860401E56491039E4
:10026000086000200860401E091D0860002008602A
:10027000401E091D08600020086000F05AFC0020A4
:1002800010BD4E480068401C4C49086070474B4800
:100290000068704731B503F03BFF0546009C601CC9
:1002A00000B1641C00BF03F033FF401BA042FAD32F
:1002B00038BD4FF0E020006920F002004FF0E0214F
:1002C000086170474FF0E020006940F002004FF0F5
:1002D000E021086170473A4870473A480068000CCE
:1002E000704738480068C0F30B00704735484068D5
:1002F00040F001003349486070473248406820F0C0
:1003000001003049486070472E48406840F00200C4
:100310002C49486070472B48406820F0020029496A
:10032000486070472748406840F00400254948600D
:1003300070472448406820F0040022494860704714
:10034000012090FAA0F1B1FA81F11F4A02EB81017C
:10035000C1F8000470470020012191FAA1F1B1FA1F
:1003600081F1194A02EB8101C1F800047047174975
:10037000096801601549091D096841601349083180
:100380000968816070470120010291FAA1F1B1FA78
:1003900081F10D4A42F82100704700204FF480712E
:1003A00091FAA1F1B1FA81F1074A42F821007047B0
:1003B0007C000020003C0240203802400000002069
:1003C00000010701002004E000002742107AFF1F0F
:1003D00010B5002807DA0A07140ED94A00F00F03F7
:1003E0001B1FD45403E00A07130ED64A135410BD42
:1003F00000BF00F00702D24B0C3B19684FF6FF0319
:100400001940D14B0B4343EA0221CD4B0C3B196001
:1004100000BF70472DE9F05F80460D461646002765
:1004200000F087F9074639462A46334601F00700AF
:10043000C0F1070ABAF1040F02D94FF0040A01E033
:10044000C0F1070AD14600F1040ABAF1070F02D23F
:100450004FF0000A01E0A0F1030AD4464FF0010A70
:100460000AFA09FAAAF1010A0AEA020A0AFA0CFAD5
:100470004FF0010B0BFA0CFBABF1010B0BEA030B7A
:100480004AEA0B0421464046FFF7A2FFBDE8F09F71
:1004900000BF00F01F02012191404209920002F1C9
:1004A000E022C2F8001100BF704700BF00F01F0239
:1004B00001219140A54A430942F8231000BF70472B
:1004C00000BF00BF00BF00BF00BFBFF34F8F00BF22
:1004D00000BF00BF9A480C38006800F4E0609A49F9
:1004E0000843001D96490C39086000BF00BF00BFDB
:1004F000BFF34F8F00BF00BF00BF00E000BFFDE7AC
:1005000070B504462546681EB0F1807F01D30120F6
:100510000FE0681E4FF0E02148610F214FF0FF30DF
:10052000FFF756FF00204FF0E021886107200861A7
:10053000002070BD00BF00BF00BFBFF35F8F00BFD2
:1005400000BF00BF7E480C30006820F480307C493A
:100550000C31086000207A497C310860704740F017
:100560000101774A7C32116075490C31096841F408
:100570008031734A0C32116000BF00BF00BFBFF36F
:100580004F8F00BF00BF00BF00BF00BF00BFBFF361
:100590006F8F00BF00BF00BF70474178684A80324C
:1005A00011600178F9B1121D41681160017B0907E2
:1005B000C27A41EA0261827A41EAC241427B41EA5F
:1005C0008241827B41EA4241C27B41EA0241427A56
:1005D00041EA0221027A41EA420102781143584A73
:1005E0008832116005E00021554A84321160121DE5
:1005F0001160704710B500F09CF810BD2DE9F04374
:1006000004462046002808DA4D4F00F00F0CACF1EC
:10061000040C17F80C703F0902E04A4F3F5C3F0999
:100620003D460E4606F00700C0F10708B8F1040F7A
:1006300002D94FF0040801E0C0F10708C44600F1F8
:100640000408B8F1070F02D24FF0000801E0A0F152
:100650000308474625FA07F84FF0010909FA0CF993
:10066000A9F1010908EA0908C2F800804FF0010861
:1006700008FA07F8A8F1010808EA0508C3F800809D
:1006800000BFBDE8F08300BF00F01F0201219140D0
:100690002E4A8032430942F8231000BF704710B53C
:1006A00001460846294A8032430952F8232000F0C7
:1006B0001F040123A3401A400AB1012200E00022D6
:1006C000104610BD00BF00F01F0201219140204ADA
:1006D000430942F8231000BF704710B50146084691
:1006E0001B4A8032430952F8232000F01F040123E3
:1006F000A3401A400AB1012200E00022104610BDBA
:10070000042808D14FF0E021096941F004014FF0BD
:10071000E022116107E04FF0E021096921F00401B6
:100720004FF0E02211617047704710B5FFF7FCFFF2
:1007300010BD03480C380068C0F302207047000069
:1007400018ED00E000E400E00000FA0580E100E0C0
:1007500080E200E0F8B502460B46002500240020A8
:100760000021E6E0012606FA01F51E6806EA050406
:10077000AC4273D15E68022E02D05E68122E13D195
:10078000CF0802F1200656F827004E07F70E0F2675
:10079000BE40B0434F07FF0E1E69BE403043CF0836
:1007A00002F1200646F8270010684F000326BE40DD
:1007B000B0431E7906F003064F00BE403043106080
:1007C0005E68012E08D05E68022E05D05E68112E8C
:1007D00002D05E68122E13D190684F000326BE40EF
:1007E000B0434F00DE68BE40304390605068012641
:1007F0008E40B0431E79C6F300168E4030435060E1
:10080000D0684F000326BE40B0434F009E68BE40F4
:100810003043D0605E6806F08056B6F1805FA8D1A4
:1008200000BF00260096B54E366846F48046B34FAA
:100830003E603E46366806F48046009600BF00BF24
:10084000AF4E8F0856F827008E07370F0F26BE4091
:10085000B043AC4EB24202D100262EE068E0AA4E70
:10086000B24201D1012628E0A84EB24201D10226AF
:1008700023E0A74EB24201D103261EE0A54EB242AC
:1008800001D1042619E0A44EB24201D1052614E09C
:10089000A24EB24201D106260FE0A14EB24201D1D2
:1008A00007260AE09F4EB24201D1082605E09E4E7F
:1008B000B24201D1092600E00A268F073F0FBE4051
:1008C00030438F4E8F0846F82700984E3068A0437B
:1008D0005E6806F48036B6F5803F00D12043934E23
:1008E0003060361D3068A0435E6806F40036B6F509
:1008F000003F00D120438D4E361D3060361D3068DC
:10090000A0435E6806F48016B6F5801F00D1204330
:10091000864E08363060361D3068A0435E6806F4A7
:100920000016B6F5001F00D12043804E0C36306013
:10093000491C1029FFF416AFF8BDF0B50C46002590
:100940000022002300219CE0012606FA01F504EABA
:100950000502AA427DD106684FEA410C032707FA37
:100960000CF7BE430660CF0800F1200656F827605A
:100970004F074FEAD76C0F2707FA0CF7BE434FEA31
:10098000D10C00F1200747F82C6086684FEA410C33
:10099000032707FA0CF7BE438660476801268E409E
:1009A000B7434760C6684FEA410C032707FA0CF7C4
:1009B000BE43C660524E8F0856F827308E07370F59
:1009C0000F26BE4033404F4EB04201D100262DE0ED
:1009D0004D4EB04201D1012628E04C4EB04201D12B
:1009E000022623E04A4EB04201D103261EE0494EC2
:1009F000B04201D1042619E0474EB04201D105268C
:100A000014E0464EB04201D106260FE0444EB042FB
:100A100001D107260AE0434EB04201D1082605E085
:100A2000414EB04201D1092600E00A268F073F0F50
:100A3000BE409E4224D18E07370F0F2606FA07F3D9
:100A40002F4E8F0856F827609E432D4F4FEA910C8A
:100A500000E015E047F82C60344E36689643334F7B
:100A60003E603E1D366896433F1D3E603E1D366823
:100A700096433F1D3E603E1D366896433F1D3E60D7
:100A8000491C1029FFF460AFF0BD024613690B400A
:100A90000BB1012000E0002070470AB1816101E044
:100AA0000B048361704742694A404261704708B550
:100AB00002464FF480300090009808430090009860
:100AC000D061D1610098D061D0690090D06900F404
:100AD000803008B1002008BD0120FCE7704710B548
:100AE0000446124814300068204028B10F481430E2
:100AF00004602046FFF7F2FF10BD000044380240BA
:100B00000838014000000240000402400008024092
:100B1000000C024000100240001402400018024085
:100B2000001C02400020024000240240003C014022
:100B30007047704770477047704730B58BB00446B8
:100B4000002514B901200BB030BD032084F8B9038F
:100B5000204604F06BF9206801F05AFD282204F1C8
:100B60001001684605F078FA94E80F0001F013FDD3
:100B70000021206801F053FD002530E00121C5EB84
:100B8000C50204F1380000EB82004170C5EBC502DC
:100B900004F1380000F82250C5EBC50200EB8200DA
:100BA000C5800021C5EBC50204F1380000EB8200CE
:100BB000C170C5EBC50204F1380000EB8200816012
:100BC000C5EBC50204F1380000EB8200C160C5EB43
:100BD000C50204F1380000EB820041616D1C0F2D4D
:100BE000CCD3002536E00021C5EBC50204F5FC702E
:100BF00000EB82004170C5EBC50204F5FC7000F803
:100C00002250C5EBC50204F1380000EB8200C5801C
:100C1000C5EBC50204F5FC7000EB8200C170C5EBAA
:100C2000C50204F5FC7000EB82008160C5EBC502D3
:100C300004F5FC7000EB8200C160C5EBC50204F551
:100C4000FC7000EB82004161206800F5827040F882
:100C500025106D1C0F2DC6D3282204F11001684603
:100C600005F0FAF994E80F0001F022FD012084F864
:100C7000B903206802F040FB002064E7704710B51C
:100C8000044600BF94F8B803012801D1022010BD2A
:100C9000012084F8B80300BF206801F0B9FC206887
:100CA00002F0E0FA206802F027FB00BF002084F881
:100CB000B80300BF00BFEAE710B504460CB9012035
:100CC00010BD032084F8B9032046FFF7D8FF204663
:100CD00004F0BBF8002084F8B90300BFF0E710B5BA
:100CE000044600BF94F8B803012801D1022010BDCA
:100CF000012084F8B80300BF206802F0EEFA2068F3
:100D000001F07FFC00BF002084F8B80300BF00BFE3
:100D1000EDE77047704770477047704770477047FE
:100D200070472DE9F84F07460E46D7F8008000259A
:100D3000AA46C6EBC60107F1380000EB8104D4E9EE
:100D40000501451AA068A84200D2A568E81C4FEA30
:100D5000900917E0D4E90501451AA068A84200D21D
:100D6000A568E81C4FEA9009387CABB2F2B200905B
:100D70004046E16801F080FFE0682844E060A06937
:100D80002844A06108F5106000EB4610806980B22D
:100D9000484506D9D4E90510884202D26069002886
:100DA000D8D165B9012000FA06FA40F6340050F8AF
:100DB000080020EA0A0040F6340141F8080000204B
:100DC000BDE8F88F7047704770472DE9FC5F044617
:100DD00026684FF0000B002001908146002500900E
:100DE0008046F84F206802F0D3FA00286CD12068C2
:100DF00002F091FA08B9BDE8FC9F206802F08BFA76
:100E000000F00200022805D12068406900F00200CD
:100E100021684861206802F07EFA00F40020B0F5F5
:100E2000002F7DD10025206802F07BFA019075E04B
:100E3000019800F0010000286CD0E9B2206802F0AF
:100E400082FA814609F00100E8B3012106F530601D
:100E500000EB45108160206901282BD1C5EBC5014D
:100E600004F5FC7000EB8100816806F5306000EB52
:100E700045100069C0F31200091AC5EBC50204F55C
:100E8000FC7000EB82008161C5EBC50104F5FC70CC
:100E900000EB8100C5EBC502C16804F5FC7000EBF6
:100EA000820080680144C5EBC50204F5FC7000EBCC
:100EB0008200C160E9B2204603F0F7FF20690128F3
:100EC00011D105B901E00EE0B3E2C5EBC50104F5AF
:100ED000FC7000EB8100406928B904F56F720121B4
:100EE000206802F07CFA09F00800082808D12046A2
:100EF00003F0D2FF082106F5306000EB4510816059
:100F000009F01000102805D1102106F5306000EB23
:100F1000451081606D1C019840080190019800E027
:100F200001E0002884D1206802F0F5F900F4802067
:100F3000B0F5802F7DD1206802F0FCF901900025EA
:100F400085E0019800F0010000287CD0E9B220681B
:100F500002F004FA814609F00100E8B30120A8403C
:100F6000009040F6340080590099884340F63401DF
:100F70008851012106F5106000EB45108160206961
:100F8000012815D1C5EBC50104F1380000EB810043
:100F9000C5EBC502C16804F1380000EB820080682F
:100FA0000144C5EBC50204F1380000EB8200C160CA
:100FB000E9B2204603F089FF2069012810D15DB90C
:100FC000C5EBC50104F1380000EB8100406918B998
:100FD00004F56F72012100E002E0206802F0FFF9E1
:100FE00009F00800082805D1082106F5106000EB7B
:100FF0004510816009F01000102805D1102106F578
:10100000106000EB4510816009F04000402805D1D8
:10101000402106F5106000EB4510816009F00200E8
:10102000022805D1022106F5106000EB4510816011
:1010300001E010E007E009F08000802803D1294694
:101040002046FFF76EFE6D1C019840080190019844
:1010500000287FF476AF206802F05DF900F00040D0
:10106000B0F1004F10D140F60400805920F001018A
:1010700040F604008151204603F05EFF206840697D
:1010800000F0004021684861206802F044F900F453
:101090000060B0F5006F0ED140F60800805900F0F6
:1010A000010010B1204603F040FF2068406900F4C1
:1010B000006021684861206802F02DF900F480503A
:1010C000B0F5805F5CD140F60400805920F001014A
:1010D00040F6040081511021206801F0CBFA4FF056
:1010E000000B0CE0FF2106F5106000EB4B10816057
:1010F00006F5306000EB4B1081600BF1010B60686E
:101100005845EFD84FF0FF3140F618008151001DCF
:10111000805940F0011140F61C008151206B70B1E4
:10112000D6F8840840F00B01C6F8841840F6440055
:10113000805940F00B0140F6440081510EE040F62A
:101140001400805940F00B0140F614008151001F3B
:10115000805940F00B014FF401608151D6F800082E
:1011600020F4FE60C6F80008217C04F56F72206848
:1011700002F035F92068406900F480502168486128
:10118000206802F0C8F800F40050B0F5005F70D19C
:10119000206802F002F92068C06820F470502168CD
:1011A000C860206801F04BFB70B90021E1604FF48A
:1011B000007161612068C06840F410502168C86007
:1011C00085E000000095BA0A0321E16040216161D9
:1011D00001F0BAF80746F948874209D3F848874230
:1011E00006D22068C06840F470502168C8606EE084
:1011F000F348874209D3F348874206D22068C06883
:1012000040F460502168C86061E0EE48874209D32D
:10121000ED48874206D22068C06840F450502168EB
:10122000C86054E0E848874209D3E848874206D2BC
:101230002068C06840F440502168C86047E0E34837
:10124000874209D3E248874206D22068C06840F44A
:1012500030502168C8603AE0DD4887420AD3DD4853
:10126000874207D22068C06840F420502168C860D7
:101270002DE035E0D748874209D3D748874206D2C8
:101280002068C06840F410502168C8601FE0D24850
:10129000874209D3D148874206D22068C06840F40B
:1012A00000502168C86012E0CC48874209D3CC487E
:1012B000874206D22068C06840F4E0502168C860C8
:1012C00005E02068C06840F4C0502168C86020462E
:1012D00003F012FE2068406900F400502168486164
:1012E000206802F018F800F01000102845D120689E
:1012F000806920F0100021688861D6F8208008F00D
:101300000F00C0EBC00104F5FC7000EB810AC8F3CC
:10131000434002281AD147F6F07008EA000030B3C3
:10132000C8F30A123046DAF80C1001F0FEFEC8F3DA
:101330000A11DAF80C000844CAF80C00C8F30A11C4
:10134000DAF818000844CAF8180010E0C8F343405F
:1013500006280CD1082204F56F71304601F0E5FE35
:10136000C8F30A11DAF818000844CAF8180020680F
:10137000806940F0100021688861206801F0CBFF8F
:1013800000F00800082808D1204603F0AEFD2068D0
:10139000406900F0080021684861206801F0BBFF47
:1013A00000F48010B0F5801F09D1E9B2204603F0A7
:1013B000D3FD2068406900F48010216848612068EE
:1013C00001F0A9FF00F40010B0F5001F09D1E9B247
:1013D000204603F0B8FD2068406900F40010216841
:1013E0004861206801F097FF00F08040B0F1804F25
:1013F00008D1204603F0B9FD2068406900F0804024
:1014000021684861206801F086FF00F0040004288C
:101410000FD12068D0F8048008F00400042802D11D
:10142000204603F0A9FD2068406840EA08002168D2
:10143000486000BFDFE410B5044600BF94F8B8036D
:10144000012801D1022010BD012084F8B80300BF9B
:10145000206801F042FF00BF002084F8B80300BFFD
:1014600000BFF0E710B5044600BF94F8B8030128A8
:1014700001D1022010BD012084F8B80300BF20680C
:1014800001F03AFF00BF002084F8B80300BF00BF9E
:10149000F0E770B504460D4600BF94F8B803012884
:1014A00001D1022070BD012084F8B80300BF294695
:1014B000206801F000FF00BF002084F8B80300BFDF
:1014C00000BFEFE72DE9F04705460E4690461F4660
:1014D0004FF0000906F08000802808D106F07F0058
:1014E000C0EBC00105F1380000EB810407E006F015
:1014F0007F00C0EBC00105F5FC7000EB810406F035
:101500007F00207006F08000C0096070C4F8088079
:10151000E770607808B12078E080022F01D10020C8
:10152000207100BF95F8B803012802D10220BDE860
:10153000F087012085F8B80300BF2146286801F034
:10154000A0F900BF002085F8B80300BF4846EEE7C9
:1015500070B504460D4605F08000802808D105F0DE
:101560007F00C0EBC00104F1380000EB810607E00A
:1015700005F07F00C0EBC00104F5FC7000EB8106B4
:1015800005F07F00307005F08000C009707000BF6A
:1015900094F8B803012801D1022070BD012084F81D
:1015A000B80300BF3146206801F064FA00BF002094
:1015B00084F8B80300BF00BFEFE70000C0ACD8005C
:1015C000C0E1E4000024F40080730601A0491A0180
:1015D000002D310140A44C0100366E0120ABA60164
:1015E0000048E8012DE9F04104460E4617469846AA
:1015F00006F07F00C0EBC00104F5FC7000EB810534
:10160000EF60C5F814800020A861687006F07F00C4
:1016100028702069012800D12F6106F07F0028B9C9
:10162000227C2946206801F0ADFC04E0227C29469A
:10163000206801F039FB0020BDE8F081024601F08E
:101640000F00C0EBC00302F5FC7000EB8300008BC1
:1016500080B270472DE9F04104460E461746984681
:1016600006F07F00C0EBC00104F1380000EB8105FB
:10167000EF60C5F814800020A8610120687006F0B2
:101680007F0028702069012800D12F6106F07F00BB
:1016900028B9227C2946206801F074FC04E0227CF1
:1016A0002946206801F000FB0020BDE8F08170B5FC
:1016B00004460D4605F08000802808D105F07F0023
:1016C000C0EBC00104F1380000EB810605E0C5EB7A
:1016D000C50104F5FC7000EB81060120B07005F037
:1016E0007F003070C5F3C010707000BF94F8B8036D
:1016F000012801D1022070BD012084F8B80300BF89
:101700003146206801F022FD05F07F0028B9217CD8
:1017100004F56F72206801F062FE00BF002084F8BB
:10172000B80300BF00BFE6E770B504460D4605F0FC
:101730008000802808D105F07F00C0EBC00104F1D3
:10174000380000EB810605E0C5EBC50104F5FC702F
:1017500000EB81060020B07005F07F003070C5F30B
:10176000C010707000BF94F8B803012801D10220A6
:1017700070BD012084F8B80300BF3146206801F035
:101780002BFD00BF002084F8B80300BF00BFEFE7C7
:1017900070B504460D4600BF94F8B803012801D186
:1017A000022070BD012084F8B80300BF05F080005E
:1017B000802805D105F07F01206800F05BFF02E082
:1017C000206800F044FF00BF002084F8B80300BF89
:1017D00000BFE6E70246116840F60800405800F0F6
:1017E000010038B140F60400405840F0010340F6D3
:1017F000040043500020704701460A6840F6040088
:10180000805820F0010340F6040083500020704708
:10181000014691F8B9037047F0B503461446002518
:1018200000221868426A21B942EA04401E68B06288
:1018300019E01868806A02EB1042002508E0186879
:1018400000F5827050F8250002EB1042681CC5B20A
:10185000481EA842F3DC42EA0447186800F582708B
:101860004E1E40F826700020F0BD0246106841620E
:101870000020704710B500240120410291FAA1F127
:10188000B1FA81F1C94A02EB8101C1F8800002F08E
:101890003FFC044607E002F03BFC001BB0F57A7FFA
:1018A00001D9032010BDC2484068C0F3C000002821
:1018B000F1D00020F6E710B5002400204FF40071AD
:1018C00091FAA1F1B1FA81F1B84A02EB8101C1F8B4
:1018D000800002F01DFC044607E002F019FC001B2A
:1018E000B0F57A7F01D9032010BDB1484068C0F33C
:1018F000C0000028F1D100BFF6E70120410291FAB3
:10190000A1F1B1FA81F1A94A42F821007047002003
:101910004FF4007191FAA1F1B1FA81F1A34A42F8B2
:1019200021007047A248006800F44040704738B575
:101930000546002400BF002000909E48006840F04B
:1019400080509C4908600846006800F08050009074
:1019500000BF00BF97483838006800F00C00082826
:101960004CD000209449086602F0D2FB044606E001
:1019700002F0CEFB001B022801D9032038BD8D48A0
:1019800040380068C0F340600028F1D100BF0090EB
:101990008748006820F4404028438549086008468D
:1019A000006800F44040009000BF00BF0120824961
:1019B000086602F0ADFB044606E002F0A9FB001B3E
:1019C000022801D90320D9E77A4840380068C0F3DB
:1019D00040600028F1D002F09BFB044607E002F0D3
:1019E00097FB001BB0F57A7F01D90320C6E770484A
:1019F0004068C0F380300028F1D001E00120BDE74D
:101A00000020BBE738B5002400BF002000906948E3
:101A1000006840F08050674908600846006800F0A0
:101A20008050009000BF00BF0120010491FAA1F195
:101A3000B1FA81F15D4A42F8210002F069FB0446E7
:101A400007E002F065FB001BB0F57A7F01D90320A7
:101A500038BD5748406800F48030B0F5803FF0D181
:101A60000120410491FAA1F1B1FA81F14F4A42F803
:101A7000210002F04DFB044607E002F049FB001B89
:101A8000B0F57A7F01D90320E2E74948406800F4C5
:101A90000030B0F5003FF0D10020D9E738B5002480
:101AA00000BF002000904348006840F0805041494A
:101AB00008600846006800F08050009000BF00BF3A
:101AC00000204FF4003191FAA1F1B1FA81F1374AC7
:101AD00042F8210002F01CFB044607E002F018FB6C
:101AE000001BB0F57A7F01D9032038BD304840682B
:101AF00000F40030B0F5003FF0D000204FF480310A
:101B000091FAA1F1B1FA81F1284A42F8210002F0DC
:101B1000FFFA044607E002F0FBFA001BB0F57A7FFB
:101B200001D90320E1E72248406800F48030B0F595
:101B3000803FF0D00020D8E718B502460B460021C0
:101B400000BF002000901B48006840F08050194CF6
:101B500020602046006800F08050009000BF00BF69
:101B60001348406840F44020114C606020460068F3
:101B700040F4402020602046016840F60340814345
:101B80001143204601600D48006840F004000B4CF2
:101B90002060012B01D130BF00E020BF0748006862
:101BA00020F00400054C2060002018BD00000E420B
:101BB00000700040403802400000474210ED00E055
:101BC000704738B504460025207800F00100002851
:101BD00074D0F748006800F00C0004280DD0F448D9
:101BE000006800F00C00082813D1F148001F0068BD
:101BF00000F48000B0F5800F0BD1ED480838006884
:101C0000C0F34040002859D06068002856D1012018
:101C100038BD00BF6068B0F5803F08D1E44808389F
:101C2000006840F48030E249083908601EE06068CE
:101C3000B0F5A02F0DD1DE480838006840F48020B0
:101C4000DB49083908600846006840F480300860C5
:101C50000CE0D7480838006820F48030D4490839AF
:101C600008600846006820F48020086000BF6068B3
:101C700090B102F04DFA054606E002F049FA401B29
:101C8000642801D90320C3E7C94808380068C0F3B5
:101C900040400028F1D011E002F03AFA054606E093
:101CA00002F036FA401B642801D90320B0E7C0488F
:101CB00008380068C0F340400028F1D1207800F0D7
:101CC0000200022869D1BA48006800F00C0058B13F
:101CD000B748006800F00C00082821D1B448001F64
:101CE000006800F48000D8B9B14808380068C0F333
:101CF000400020B1E068012801D0012088E7AC480D
:101D00000838006820F0F800F82292FAA2F2B2FA3D
:101D100082F2216991400843A549083908603CE0F6
:101D2000E06828B30120A349086002F0F1F90546F4
:101D300006E002F0EDF9401B022801D9032067E715
:101D40009B4808380068C0F340000028F1D098484C
:101D50000838006820F0F800F82292FAA2F2B2FAED
:101D600082F221699140084391490839086014E0E2
:101D700000209049086002F0CBF9054606E002F029
:101D8000C7F9401B022801D9032041E788480838D9
:101D90000068C0F340000028F1D1207800F008006E
:101DA00008282CD16069A8B101208349086002F09D
:101DB000AFF9054606E002F0ABF9401B022801D955
:101DC000032025E77A486C300068C0F34000002803
:101DD000F1D014E000207849086002F099F9054636
:101DE00006E002F095F9401B022801D903200FE715
:101DF0006F486C300068C0F340000028F1D12078B3
:101E000000F0040004287FD100BF00200090684843
:101E10003830006840F08050654938310860084625
:101E2000006800F08050009000BF00BF6348006869
:101E300040F480706149086002F06AF9054606E0E6
:101E400002F066F9401B022801D90320E0E65B4856
:101E5000006800F480700028F2D000BFA06801285C
:101E600008D153486830006840F00100504968319B
:101E700008601DE0A06805280DD14D486830006855
:101E800040F004004A49683108600846006840F0A4
:101E9000010008600CE046486830006820F001004E
:101EA0004349683108600846006820F00400086073
:101EB00000BFA068A0B102F02BF9054608E002F0CF
:101EC00027F9401B41F28831884201D903209FE65F
:101ED000374868300068C0F340000028EFD013E0B6
:101EE00002F016F9054608E002F012F9401B41F233
:101EF0008831884201D903208AE62D48683000687D
:101F0000C0F340000028EFD1A069E8B3284800687A
:101F100000F00C00082870D0A069022857D10020DA
:101F20002449086602F0F4F8054606E002F0F0F8ED
:101F3000401B022801D903206AE61D4808380068C2
:101F4000C0F340600028F1D1D4E90701084347F607
:101F5000C07292FAA2F2B2FA82F2616A9140084328
:101F60000122A16AC2EB51014FF4403292FAA2F26F
:101F7000B2FA82F2914008434FF0706292FAA2F2F4
:101F8000B2FA82F2E16A00E039E091400843084980
:101F9000091F086001200749086602F0B9F80546E4
:101FA0000EE002F0B5F8401B022809D903202FE605
:101FB0000838024000004742800E4742007000404F
:101FC000FC480068C0F340600028EAD017E0002019
:101FD000F949086602F09CF8054606E002F098F818
:101FE000401B022801D9032012E6F2480068C0F322
:101FF00040600028F2D102E0FFE7012008E600205F
:1020000006E670B50021002200230020E94C0834C8
:10201000246804F00C0424B1042C04D0082C41D111
:1020200003E0E64840E0E6483EE0E24C241D246838
:1020300004F03F01DF4C241D246804F4800484B1C3
:10204000DF4CB4FBF1F5DB4C241D246847F6C07669
:10205000344096FAA6F6B6FA86F6F44005FB04F28A
:102060000FE0D64CB4FBF1F5D24C241D246847F6A2
:10207000C076344096FAA6F6B6FA86F6F44005FB2A
:1020800004F2CC4C241D246804F440344FF4403551
:1020900095FAA5F5B5FA85F5EC40641C6300B2FB32
:1020A000F3F001E0C54800BF00BF70BD70B5044645
:1020B0000D460026C348006800F00F00A84209D270
:1020C000C0490D700846006800F00F00A84201D01A
:1020D000012070BD207800F00200022809D1B54827
:1020E0000830006820F0F000A1680843B1490831C9
:1020F0000860207800F0010000287AD0606801288C
:1021000006D1AC480068C0F34040A8B90120E0E720
:102110006068022802D06068032806D1A5480068DC
:10212000C0F3406040B90120D3E7A2480068C0F383
:10213000400008B90120CCE79E480830006820F034
:102140000300616808439B490831086001F0E0FF23
:1021500006466068012811D108E001F0D9FF801B14
:1021600041F28831884201D90320B2E79148083012
:10217000006800F00C000428EFD13AE06068022803
:1021800011D108E001F0C4FF801B41F28831884280
:1021900001D903209DE787480830006800F00C0053
:1021A0000828EFD125E06068032811D108E001F08C
:1021B000AFFF801B41F28831884201D9032088E7B4
:1021C0007C480830006800F00C000C28EFD110E0CB
:1021D00008E001F09DFF801B41F28831884201D95F
:1021E000032076E773480830006800F00C000028F0
:1021F000EFD17448006800F00F00A84209D9714976
:102200000D700846006800F00F00A84201D00120C0
:102210005FE7207800F00400042809D16548083001
:10222000006820F4E050E168084362490831086022
:10223000207800F0080008280AD15E4808300068BD
:1022400020F46040216940EAC1005A490831086021
:10225000FFF7D7FE57490831096801F0F001F02275
:1022600092FAA2F2B2FA82F2D140574A515CC840C7
:10227000564908600F20FDF7B6FF002029E770B52A
:1022800086B006460C46154656BB00BF002000909F
:1022900048483030006840F001004649303108605D
:1022A0000846006800F00100009000BF00BF8815DC
:1022B00001900220029003200490002003900590DA
:1022C00001A94348FEF746FA3A480830006820F072
:1022D000EC6044EA0501084336490831086029E00A
:1022E00000BF0020009033483030006840F0040008
:1022F0003049303108600846006800F00400009062
:1023000000BF00BF481501900220029003200490F6
:1023100000200390059001A92E48FEF71BFA2548DE
:102320000830006820F0784044EAC501084321499C
:102330000831086006B070BD01201F49C8647047AD
:1023400000201D49C864704720480068704700B5E8
:10235000FFF7FAFF17490831096801F4E0514FF41B
:10236000E05292FAA2F2B2FA82F2D1401A4A515CD9
:10237000C84000BD00B5FFF7E7FF0E490831096806
:1023800001F460414FF4604292FAA2F2B2FA82F292
:10239000D140114A515CC84000BD0F210160054980
:1023A000096801F48021B1F5802F17D14FF4A021E5
:1023B000416020E000380240000047420024F40061
:1023C00040787D01003C02404C6200087C00002007
:1023D00000000240000802405C6200085A49096897
:1023E00001F48031B1F5803F03D14FF48031416079
:1023F00001E0002141605449096801F0010111B177
:102400000121C16001E00021C1604F49096801F06C
:10241000F801F82292FAA2F2B2FA82F2D1400161F6
:1024200049497031096801F00401042902D10521EC
:1024300081600AE044497031096801F0010111B17D
:102440000121816001E0002181603F497431096808
:1024500001F0010111B10121416101E0002141615F
:102460003949096801F08071B1F1807F02D1022100
:10247000816101E0012181613349091D096801F48D
:102480008002C2613049091D096801F03F02026201
:102490002D49091D096847F6C072114092FAA2F24F
:1024A000B2FA82F2D14041622749091D096801F45C
:1024B000403101F5803149004FF4403292FAA2F2E6
:1024C000B2FA82F2D14081621F49091D096801F008
:1024D00070614FF0706292FAA2F2B2FA82F2D140C9
:1024E000C16270470F220260174A0832126802F078
:1024F00003024260144A0832126802F0F00282605D
:10250000114A0832126802F4E052C2600E4A0832E0
:10251000126802F46042D20802610C4A126802F0AA
:102520000F020A607047704710B507480C3000680A
:1025300000F08000802805D1FFF7F5FF80200249D8
:102540000E31087010BD000000380240003C02400F
:102550000146002200BF501C0246FA4B984201D9A6
:1025600003207047086900F000400028F3D00022E3
:10257000086940F00100086100BF501C0246F14BA1
:10258000984201D90320ECE7086900F00100002817
:10259000F3D100BFE5E70FB410B504460898012851
:1025A00016D1A06B20F48030A063E068E6490840B3
:1025B000E060E06820F44010E0600F98012803D14B
:1025C000E06840F48010E0602046FFF7C1FF09E0BA
:1025D000E06840F04000E0602046FFF7B9FF4FF4AC
:1025E0008030A0630698012807D1A06840F006005B
:1025F000A060A06840F02000A060002010BC5DF842
:1026000014FB0146886840F0010088600020704794
:102610000146886820F0010088600020704770B58E
:1026200004460D46E06820F0C040E060012D04D172
:10263000E06840F00050E06004E01DB9E06840F060
:102640008040E060322001F066FD002070BD014650
:1026500000221020086100BF501C0246B94B98426E
:1026600001D903207047086900F010001028F3D04A
:102670000020F7E710B502460023202040EA811031
:10268000106100BF581C0346AE4CA04201D9032084
:1026900010BD106900F020002028F3D00020F7E7DB
:1026A0000246D2F800080843C2F80008002070472C
:1026B0000FB430B5044600250E9820B9A06B40F445
:1026C0000010A06303E0A06B40F40020A063002092
:1026D000C4F8000ED4F80008C4F8000809980128CE
:1026E0000BD1069820B900212046FFF7D9FF08E05A
:1026F00001212046FFF7D4FF03E003212046FFF726
:10270000CFFF10212046FFF7B5FF2046FFF79FFFC0
:1027100000214FF401600151001D0151491E001DAF
:1027200001510021001D0151002524E004F5106035
:1027300000EB4510006800F00040B0F1004F07D1F9
:102740004FF0904104F5106000EB4510016005E08A
:10275000002104F5106000EB45100160002104F534
:10276000106000EB45100161FF2104F5106000EBE3
:10277000451081606D1C0498A842D7D8002524E03C
:1027800004F5306000EB4510006800F00040B0F147
:10279000004F07D14FF0904104F5306000EB451039
:1027A000016005E0002104F5306000EB4510016098
:1027B000002104F5306000EB45100161FF2104F5B4
:1027C000306000EB451081606D1C0498A842D7D89A
:1027D0004FF40160005920F480714FF40160015101
:1027E000079801280BD159494FF403600151005952
:1027F000574908434FF40361085108460559002022
:10280000A0616FF080406061079818B9A06940F03E
:102810001000A061A0694F490843A0610A9818B14F
:10282000A06940F00800A0610E98012803D1A069BA
:1028300049490843A061002030BC5DF814FB014603
:10284000002040F60802525802F0060202B917E0D2
:1028500040F60802525802F00602022A06D040F65C
:102860000802525802F00602062A01D1032007E0AE
:1028700040F60802525802F00602042A00D1022053
:10288000704710B50246487801282BD140F61C004D
:1028900080580C780123A3409BB2184340F61C03D8
:1028A0009850087802F5106303EB4010006800F4BC
:1028B0000040E8BB0889C0F30A00CB7840EA8340B7
:1028C0000B7840EA835040F0805040F4004002F51D
:1028D000106404EB43131B6818430B7804EB431399
:1028E00018602CE040F61C0080580C780123A340AF
:1028F0001A4C04EA0343184340F61C039850087826
:1029000002F5306303EB4010006800F4004078B932
:102910000889C0F30A00CB7840EA834040F0805039
:1029200040F400400B7802F5306404EB431300E000
:1029300005E01B6818430B7804EB43131860002074
:1029400010BD0000400D0300BFFFBDFF000180006F
:102950000300010000383C80040000400000FFFF3D
:1029600010B50246487801283DD1087802F5106379
:1029700003EB4010006800F40040B0B90889C0F3D0
:102980000A00CB7840EA83400B7840EA835040F05D
:10299000805040F4004002F5106404EB43131B68C0
:1029A00018430B7804EB431318600889C0F30A003E
:1029B000CB7840EA83400B7840EA835040F0805067
:1029C00040F40040FC4B1B681843FB4B186040F67A
:1029D0003C0080580C780123A3409BB2184340F67A
:1029E0003C03985044E0087802F5306303EB401054
:1029F000006800F4004070BB0889C0F30A00CB787F
:102A000040EA83400B7840EA835040F40043087862
:102A100002F5306404EB4010006818430B7804EBB7
:102A2000431318602046E44B18600878234603EBF4
:102A30004010E14B18600889C0F30A00CB7840EAE7
:102A400083400B7840EA835040F40040DA4B1B6827
:102A50001843D94B186040F63C0080580C7801238D
:102A6000A340D64C04EA0343184340F63C03985075
:102A7000002010BD70B504460D4600266878012878
:102A800039D1287804F5106101EB4010006820F47A
:102A90000042287801EB401002604FF00062287875
:102AA00001EB40100260D200287801EB4010026078
:102AB00000BF701C0646C249884201D9032070BD80
:102AC000287804F5106101EB4010806800F0804028
:102AD000B0F1804FEDD010212046FFF7CBFD40F63E
:102AE0001C0000592A780121914089B2884340F6A0
:102AF0001C0108513DE0287804F5306101EB4010DD
:102B0000006820F40042287801EB401002604FF08A
:102B10000062287801EB40100260D200287801EBB7
:102B20004010026000BF701C0646A549884201D9CA
:102B30000320C4E7287804F5306101EB4010806879
:102B400000F010001028EED040F60400005940F4C8
:102B5000806140F60400015140F61C0000592A78BB
:102B600001219140954A02EA0141884340F61C0147
:102B700008510020A3E770B504460D46002668788A
:102B8000012839D1287804F5106101EB4010006864
:102B900020F40042287801EB401002604FF0006200
:102BA000287801EB40100260D200287801EB401039
:102BB000026000BF701C06468149884201D903208B
:102BC00070BD287804F5106101EB4010806800F0BA
:102BD0008040B0F1804FEDD010212046FFF74AFD34
:102BE00040F61C0000592A780121914089B288439F
:102BF00040F61C0108513DE0287804F5306101EBF6
:102C00004010006820F40042287801EB4010026078
:102C10004FF00062287801EB40100260D200287863
:102C200001EB4010026000BF701C064664498842F8
:102C300001D90320C4E7287804F5306101EB401086
:102C4000806800F010001028EED040F60400005913
:102C500040F4806140F60400015140F61C00005928
:102C60002A7801219140554A02EA0141884340F601
:102C70001C0108510020A3E7F0B50446059E00277B
:102C800000257EB9D81C870800BF09E0D1F800C034
:102C900004F5805000EB0230C0F800C06D1C091D27
:102CA000BD42F3D30020F0BDF8B505460C461646EC
:102CB0000027607801287DD1606918BB207805F570
:102CC000106101EB401000693E490840217805F58C
:102CD000106202EB411108612078114601EB4010AF
:102CE000006940F40022207801EB40100261207856
:102CF00001EB40100069C20CD204207801EB4010B7
:102D000002614FE0207805F5106101EB4010006989
:102D1000C20CD204207801EB40100261207801EB54
:102D20004010006927490840217805F5106202EB40
:102D300041110861A16860690844401EB0FBF1F0D0
:102D40002049C94301EAC040217802EB41110969D9
:102D50000843217802EB411108612078114601EB0C
:102D6000401001696069C0F312000143207802EB52
:102D700040100161E078012814D12078114601EB60
:102D80004010006920F0C042207801EB4010026141
:102D9000207801EB4010006940F00052207801EBF0
:102DA00040100261012E12D1207805F5106101EB6F
:102DB000401009E054E00000040000200000FFFF84
:102DC000400D0300FFFF07E0226942610EE0E0785A
:102DD00001280BD0606948B140F634004059227890
:102DE00001219140084340F634014851E078012820
:102DF0001ED140F60800405900F4807060B9207878
:102E000005F5106101EB4010006840F00052207899
:102E100001EB401002600BE0207805F5106101EB3A
:102E20004010006840F08052207801EB40100260B2
:102E3000207805F5106101EB4010006840F0044275
:102E4000207801EB40100260E078012807D100965D
:102E5000A08A83B222782846E168FFF70DFF8FE051
:102E6000207805F5306101EB40100069C20CD204F6
:102E7000207801EB40100261207801EB40100169DD
:102E8000F7480140207805F5306202EB40100161FF
:102E90006069C0B92078114601EB40100069A16853
:102EA000C1F312010843217802EB41110861207837
:102EB000114601EB4010006940F40022207801EB3C
:102EC0004010026125E0A16860690844401EB0FB23
:102ED000F1F087B2207805F5306101EB4010006910
:102EE000DF49C94301EAC7410843217805F530624B
:102EF00002EB411108612078114601EB4010016995
:102F0000A0687843C0F312000843217802EB411116
:102F10000861012E06D1207805F5306101EB4010E3
:102F2000E2684261E07801281ED140F6080040596D
:102F300000F4807060B9207805F5306101EB401035
:102F4000006840F00052207801EB401002600BE076
:102F5000207805F5306101EB4010006840F08052A8
:102F6000207801EB40100260207805F5306101EB1C
:102F70004010006840F00442207801EB40100260ED
:102F80000020F8BD30B503464878012871D1486962
:102F900018BB087803F5106404EB40100069B04CCE
:102FA00020400C7803F5106505EB44142061087887
:102FB0002C4604EB4010006940F40025087804EB2F
:102FC00040100561087804EB40100069C50CED0461
:102FD000087804EB4010056137E0087803F51064C9
:102FE00004EB40100069C50CED04087804EB4010B8
:102FF0000561087804EB40100069994C20400C787A
:1030000003F5106505EB441420618C684869A04203
:1030100001D988684861087803F5106404EB401012
:10302000006940F40025087804EB40100561087839
:1030300004EB401004694869C0F3120004430878A7
:1030400003F5106505EB40100461087803F5106482
:1030500004EB4010006840F00445087804EB401091
:103060000560012A06D1087804EB40100D6945611E
:1030700059E00DE04869002855D040F63400C058AA
:103080000D780124AC40204340F63404E0504AE07F
:10309000087803F5306404EB40100069C50CED04BA
:1030A000087804EB40100561087804EB40100469CF
:1030B0006B480440087803F5306505EB4010046167
:1030C000486908B188684861087803F5306404EB02
:1030D0004010006940F40025087804EB40100561B9
:1030E000087804EB401000698C68C4F31204204394
:1030F0000C7803F5306505EB44142061012A06D1F4
:10310000087803F5306404EB4010CD684561087819
:1031100003F5306404EB4010006840F00445087883
:1031200004EB40100560002030BD30B5034600249C
:10313000D01C850800BF05E04FF48050C0580860DF
:10314000641C091DAC42F7D3084630BD10B50246D9
:10315000487801281FD1087802F5106303EB40106E
:10316000006800F0004048B9087803EB40100068A0
:1031700020F08044087803EB40100460087802F5E2
:10318000106303EB4010006840F40014087803EB70
:10319000401004601EE0087802F5306303EB401035
:1031A000006800F0004048B9087803EB4010006860
:1031B00020F08044087803EB40100460087802F5A2
:1031C000306303EB4010006840F40014087803EB10
:1031D00040100460002010BD10B502464878012858
:1031E0001ED1087802F5106303EB4010006820F44C
:1031F0000014087803EB40100460C878032802D05C
:10320000C87802282AD1087802F5106303EB401031
:10321000006840F08054087803EB401004601DE023
:10322000087802F5306303EB4010006820F40014C6
:10323000087803EB40100460C878032802D0C878EF
:1032400002280BD1087802F5306303EB40100068C8
:1032500040F08054087803EB40100460002010BD5B
:10326000FFFF07E030B5044600250BE0FF2104F521
:10327000106000EB4510816004F5306000EB4510F4
:1032800081606D1C0F2DF1D34FF0FF3140F6180017
:10329000015100214FF401600151001D015140F620
:1032A0001C0001512046FFF7D2F910212046FFF7FC
:1032B000E1F9002030BD0246D2F8000820F4FE609B
:1032C000C2F80008D2F800084FF4FE6303EA0113C5
:1032D0001843C2F800080020704710B5044640F6B5
:1032E0000400005920F0020140F6040001510320BF
:1032F00000F011FF002010BD10B5044640F6040098
:10330000005940F0020140F604000151032000F092
:1033100002FF002010BD0146002048698A69104064
:103320007047014640F618004258001D40580240C0
:10333000100C7047014640F618004258001D4058D6
:10334000024090B27047024602F5306303EB41132E
:10335000986840F614039B581840704730B50246F1
:103360004FF40165AB5840F63405AC5824FA01F52A
:1033700005F0010543EAC51302F5106505EB41159B
:10338000AD6805EA030030BD42690A4342617047F7
:103390000146486900F00100704701464FF4106093
:1033A0004058C20AD2024FF41060425040F6080062
:1033B000405800F00600042807D14FF41060405830
:1033C00040F003024FF41060425040F604004058B1
:1033D00040F4807240F6040042500020704710B55F
:1033E00003460024C3F8104BD3F8100B40F400241C
:1033F000C3F8104BD3F8100B40F01804C3F8104B6F
:10340000D3F8100B40F0C044C3F8104B012906D18B
:10341000C3F8142B4FF080244FF43060C4500020C8
:1034200010BD08B50246D2F840040090009820F084
:103430002E000090009800F4805030B9012904D18A
:10344000009840F48050C2F84004009800F4805086
:10345000B0F5805F05D121B9009820F48050C2F802
:103460004004002008BD0FB470B504460020C4F825
:10347000000EA06B20F48020A063A06B20F400203D
:10348000A063A06B40F40010A0630798032809D143
:10349000B4F1A04F06D0D4F8000440F00400C4F802
:1034A000000405E0D4F8000420F00400C4F800048F
:1034B00010212046FFF7DEF82046FFF7C8F8002568
:1034C0000DE04FF0FF3104F5A06000EB4510816086
:1034D000002104F5A06000EB4510C1606D1C06984A
:1034E000A842EED801212046FFF79BFFC82000F03C
:1034F00012FE0020A061401E6061B4F1A04F07D110
:1035000080206062FB48A062FB48C4F8000107E02D
:103510004FF400706062F948A062F948C4F80001F5
:10352000089818B9A06940F01000A061A069F54999
:103530000843A061002070BC5DF814FB0246D2F87D
:10354000000420F00300C2F80004D2F8000401F0E7
:1035500003031843C2F80004012905D14BF6803358
:1035600040F20440835006E0022904D141F2707316
:1035700040F2044083500020704738B50446D4F828
:1035800040040090009820F02E000090009840F435
:103590008070C4F840040A2000F0BDFD009820F4BB
:1035A0008070C4F84004002038BD08B50146D1F849
:1035B000400400900098C0F3414008BD01464FF41C
:1035C0008160405880B270472DE9F0410446DDE942
:1035D0000757069E4FF0FF3C04F5A06000EB41103A
:1035E000C0F808C035B1012D48D0022D03D0032DFD
:1035F0005DD12AE000BF40F29D4C04F5A06000EBD5
:103600004110C0F80CC002F0800068B104F5A06061
:1036100000EB4110C06840F4807C04F5A06000EB32
:103620004110C0F80CC00FE0B4F1A04F0CD004F56D
:10363000A06000EB4110C06840F0600C04F5A06091
:1036400000EB4110C0F80CC031E040F29D6C04F575
:10365000A06000EB4110C0F80CC002F0800060B127
:1036600004F5A06000EB4110C06840F4807C04F5D4
:10367000A06000EB4110C0F80CC018E040F2252C0F
:1036800004F5A06000EB4110C0F80CC002F080000F
:1036900060B104F5A06000EB4110C06840F4C07C4C
:1036A00004F5A06000EB4110C0F80CC000BF00BFE3
:1036B0004FF4836000594FF0010C0CFA01FC40EA12
:1036C0000C00C4F81804A06940F00070A0614FF02D
:1036D000FE5000EA83504FF4F04C0CEAC22C40EA52
:1036E0000C00C2F3C01C4FF4004808EACC3C40EA8E
:1036F0000C00022E02D14FF0010C01E04FF0000C43
:103700004FF4003808EA4C4C40EA0C004FF4402CCF
:103710000CEA854C40EA0C00C7F30A0C40EA0C00A6
:1037200004F5A06C0CEB411CCCF80000032D0CD16F
:1037300004F5A06000EB4110006840F0005C04F567
:10374000A06000EB4110C0F800C00020BDE8F0818F
:1037500030B50246012400236B4800EAC44040F023
:10376000004502F5A06000EB4110056102F5A06084
:1037700000EB4110036823F0804343F0004302F55F
:10378000A06000EB41100360002030BD2DE9F84F30
:1037900005460C4616464FF0000BDA4600274FF45C
:1037A0008078B946B5F1A04F1CD02079D0B94EB978
:1037B0006079012806D161782846FFF7C9FF00200B
:1037C000BDE8F88F012E0DD1607805F5A06101EB01
:1037D0004010C06820F06002607801EB4010C260C9
:1037E00000206071206968B1218920690844401E69
:1037F000B0FBF1F087B2474505DD474620897843A5
:10380000206100E00127E07810B120897843206131
:103810002069C0F312003C4901EAC7410843A17A7C
:103820004FF0C04202EA41710843617805F5A06299
:1038300002EB4111086136B1607805F5A06101EB3A
:103840004010E26842614FF48160405900F001008D
:1038500080F0010B607805F5A06101EB4010006875
:1038600020F00052607801EB40100260607801EBBC
:103870004010006840EA4B72607801EB4010026033
:10388000607801EB4010D0F8009029F0804949F0B1
:103890000049607801EB4010C0F80090B6BBE078BA
:1038A000A0BB206990B3E07930B1012813D0022881
:1038B00003D003282BD10DE000BF2069C01CC0F34A
:1038C0008F0AE86A80B2504503D2A86940F0200010
:1038D000A8611DE000BF2069C01CC0F38F0A4FF42F
:1038E0008260405980B2504503D2A86940F08060A0
:1038F000A8610DE080006000E000400000020001CF
:103900000003E000080020A30000F81F0AE000BF49
:1039100000BF00200090208A83B262782846E168C8
:10392000FFF7AAF900204BE7014640F21440405847
:1039300080B2704710B50246002302F5A06000EB8C
:1039400041100068C0F3814040B102F5A06000EB77
:1039500041100068C0F38140022846D102F5A06002
:1039600000EB4110006840F0804402F5A06000EBDD
:1039700041100460D06A00F47F0048BB02F5A060EB
:1039800000EB4110006820F0004402F5A06000EB5D
:103990004110046002F5A06000EB4110006840F0A7
:1039A000004402F5A06000EB4110046000BF581C09
:1039B0000346B0F57A7F00D909E002F5A06000EB7C
:1039C0004110006800F00040B0F1004FEFD053E02C
:1039D00002F5A06000EB4110006840F0004402F5E1
:1039E000A06000EB4110046046E002F5A06000EB2F
:1039F0004110006840F0804402F5A06000EB4110E7
:103A000004604FF48260805880B248BB02F5A06029
:103A100000EB4110006820F0004402F5A06000EBCC
:103A20004110046002F5A06000EB4110006840F016
:103A3000004402F5A06000EB4110046000BF581C78
:103A40000346B0F57A7F00D909E002F5A06000EBEB
:103A50004110006800F00040B0F1004FEFD00BE0E3
:103A600002F5A06000EB4110006840F0004402F550
:103A7000A06000EB41100460002010BDF0B50546C9
:103A800000272846FEF7C4FD10212846FEF7F2FD68
:103A90002846FEF7DCFD002411E005F5A06000EBF0
:103AA0004410066846F0804626F0004626F400469C
:103AB00005F5A06000EB44100660601CC4B20F2C3A
:103AC000EBDD002423E005F5A06000EB4410066860
:103AD00046F0804646F0004626F4004605F5A06014
:103AE00000EB4410066000BF781C0746B0F57A7FF3
:103AF00000D909E005F5A06000EB4410006800F073
:103B00000040B0F1004FEFD000BF601CC4B20F2CDA
:103B1000D9DD4FF0FF3140F2144041510846686151
:103B20002846FEF76EFD0020F0BD000000B593B002
:103B300000BF002001902B48006840F080502949C8
:103B400008600846006800F08050019000BF00BF88
:103B500000BF002001902448006840F44040224902
:103B600008600846006800F44040019000BF00BFB4
:103B70000120029000040390002005904FF4800182
:103B800009910220089019210A914FF4A8710B9114
:103B900004210C9107210D9102A8FEF712F810B133
:103BA000012013B000BDFDF72DFF08B10120F8E79B
:103BB00002200F900020109007200E900E9840F0E9
:103BC00008000E904FF4A05011904FF480501290C6
:103BD00006210EA8FEF76AFA08B10120E1E70020ED
:103BE000DFE70000403802400070004001464FF41B
:103BF0000030081AC0F38F2070472DE9F0430446C7
:103C00000E461546DDE907892046FFF7EFFFC7B2EC
:103C1000002243E001209040304000B93CE0B14830
:103C200030F81700012191400843AE4921F81700F0
:103C3000E0684FEA420C032101FA0CF1884351007D
:103C400008FA01F10843E06020684FEA420C0321C2
:103C500001FA0CF18843510005FA01F10843206094
:103C6000012D01D0022D16D161680120904080B253
:103C700021EA000003FA02F189B208436060A068FB
:103C80004FEA420C032101FA0CF18843510009FA72
:103C900001F10843A06000BF501CC2B2102AB9DB7A
:103CA000BDE8F08300B502461046FFF79FFF0121F3
:103CB00001FA00F08C49096808438B49086000BD8F
:103CC0002DE9FC4305460C4616461F46DDE90989E9
:103CD0000CB9BDE8FC832846FFF7E4FF3B463246BB
:103CE00021462846CDE90089FFF787FF00BFF0E7AE
:103CF0002DE9FC4705460E4617469846DDE90A9A27
:103D00000EB9BDE8FC872846FFF7CCFF00241AE077
:103D10000120A040304000B914E0E10805F1200086
:103D200050F821006107CA0E0F21914088436107B6
:103D3000C90E0AFA01F10843E20805F1200141F831
:103D4000220000BF641C102CE2D33B460222314605
:103D50002846CDE90089FFF750FF00BFD1E770B5D5
:103D600003460C461846FFF741FFC5B2002214E097
:103D700001209040204070B1186856000321B140E6
:103D800008431860574830F81500012191408843D6
:103D9000544921F81500501CC2B2102AE8DB70BD4E
:103DA00030B5024600200BE0012383400B402BB1CD
:103DB000136845000324AC40A3431360431CD8B2EE
:103DC0001028F1DB30BD30B5024600200FE00123A2
:103DD00083400B404BB1136845000324AC40A34320
:103DE00045000124AC4023431360431CD8B2102883
:103DF000EDDB30BD30B5024600200BE001238340EF
:103E00000B402BB1136845000324AC4023431360DF
:103E1000431CD8B21028F1DB30BD30B5024600207B
:103E200011E0012383400B4003B90AE01368450009
:103E30000324AC40A34345000224AC402343136059
:103E400000BF431CD8B21028EBDB30BD70B5034671
:103E5000002011E0012484400C4004B90AE0DC6831
:103E600046000325B540AC43450002FA05F52C4356
:103E7000DC6000BF441CE0B21028EBDB70BD41F4F5
:103E80008032C261C161C261C369C36970470146C2
:103E9000002002E0421C90B249100129FADC704770
:103EA00000B502461046FFF7A1FE012181400E48F1
:103EB000006888430C49086000BD00B50246104602
:103EC000FFF794FE074931F8100000BD00B5024627
:103ED0001046FFF78BFE034931F81000C04380B253
:103EE00000BD0000D0010020303802409748006833
:103EF00020F08070954A10601046006840F0807095
:103F000010609348006820F00100914A106010464C
:103F1000006840F0010010600020506010464168C9
:103F200000BF00BF8A484068401A70472DE9F0473B
:103F300005460E4617469846DDF8209085480078DD
:103F4000052802DB0020BDE8F087142002F048F9C4
:103F500004460CB90020F6E765606068A060207830
:103F600066F300002070207867F341002070C4F8E9
:103F70000C80C4F81090774801780078401C754A8E
:103F80001070101D40F821402046DCE72DE9F0417B
:103F90000646002408E06F48001D50F82400B04297
:103FA00000D105E0601CC4B26A480078A042F2DC8F
:103FB00000BF68480078A04201D1BDE8F0816548A3
:103FC000001D50F8247000BFEFF31080054672B654
:103FD00008E06048001D611C50F8211040F82410D2
:103FE000601CC4B25B480078401EA042F1DC594816
:103FF0000078401E57490870384602F0C9F805B9E4
:1040000062B600BFD9E7017821F002010170704764
:10401000017821F00201891C0170704741688160BC
:10402000704709B1012200E00022037862F3000327
:104030000370704741607047704710B5464800688C
:10404000401C454908604548006820B14348006865
:10405000401E42490860002453E03E48001D50F8CD
:10406000240000284BD03B48001D50F82400007865
:10407000C0F34000F0B33748001D50F824008068BA
:1040800050B13448001D50F824008068401E31496A
:10409000091D51F8241088602E48001D50F8240096
:1040A000806838BB2B4B1B1D53F824301969294BF2
:1040B0001B1D53F8240053F82430DA689047254834
:1040C000001D50F8240041682248001D50F82400CB
:1040D00081602048001D50F82400007800F00100A5
:1040E00040B91C48001D50F82400007820F002015F
:1040F000184800E003E0001D50F824000170601C27
:10410000C4B214480078A042A7DCFFF795FF10BDA9
:1041100011480068704700B5014600BFEFF3058005
:1041200048B9FFF7F5FF024600BFFFF7F1FF801A1D
:104130008842FAD309E006E04FF0E020006900F47D
:10414000803000B1491E0029F6D100BDFCED00E031
:10415000001000E0EC0100200C000020080000200E
:104160001CB5032000210B460122CDE900104FF4BD
:10417000A6511E48FFF7A4FD4FF4A6501B49183165
:1041800008601CBD1CB50020022103460246CDE993
:10419000001001211648FFF793FD1CBD144800696B
:1041A00000F0010080F0010030B91248007830B909
:1041B000012010490870704700200E490870002047
:1041C000F9E70B48006900F0010080F0010038B108
:1041D0000848007838B1002006490870012070476F
:1041E0000120044908700020F9E70000001802408F
:1041F0000000024010000020002070471CB50A207B
:10420000032100231A46CDE900104FF4D0514E4847
:10421000FFF76EFD0A20032101231A46CDE90010A5
:1042200099024948FFF764FD00BF4848006840F024
:1042300080004649086000BF0020019043481030CC
:10424000006840F480404149103108600846006829
:1042500000F48040019000BF00BF00BF0022012198
:104260004320FCF7D7F84320FCF712F900201CBDCF
:104270001CB50A20032100231A46CDE9001028218D
:104280003148FFF735FD0A20032100231A46CDE906
:10429000001043F623412E48FFF72AFD0A20032190
:1042A00000231A46CDE9001001212A48FFF720FD1E
:1042B0000A20032100231A46CDE9001010212648C8
:1042C000FFF716FD0A20032100231A46CDE900104E
:1042D0004FF400612148FFF70BFD00BF0020019063
:1042E0001A48001F006840F080401849091F086004
:1042F0000846006800F08040019000BF00BF00BF8A
:10430000002001900846006840F000500860084610
:10431000006800F00050019000BF00BF00220121A2
:104320004D20FCF777F84D20FCF7B2F800201CBDBB
:10433000704710B50A48FCF748FD10BD10B5094894
:10434000FCF743FD10BD000000000240343802407D
:104350000004024000080240001C0240002002400D
:10436000CC0D0020BC11002010B504460CB1022C6D
:1043700002D1184800F05DFF012C01D0022C02D1BF
:10438000154800F056FF002010BD10B504460CB1D2
:10439000022C02D10F4800F053FF012C01D0022C57
:1043A00002D10D4800F04CFF002010BD01460B4823
:1043B00050F82100704700B503461846FFF7F6FF96
:1043C00002462AB192F8FC01032801D1002000BD69
:1043D0000120FCE704020020280400201400002033
:1043E0000146002001B9DE48012900D1DD487047AF
:1043F0000146002001B9DC48012900D1DB487047A3
:1044000010B504460CB1022C18D10022D849D94865
:1044100000F0C6FED849D74800F0F7FED749D54886
:1044200001F022FDD64A4FF48071CD4800F0FEF92C
:10443000D44A4FF48071CC4800F0F8F9012C01D037
:10444000022C19D10122CA49CF4800F0A9FECA495D
:10445000CD4800F0DAFEC9491031CB4801F004FD27
:10446000CA4A4FF48071BF4800F0E0F9C84A4FF4DF
:104470008071BE4800F0DAF9002010BD2DE9F0414E
:1044800004460CB1022C19D10020FFF78FFF05461E
:10449000D5F81862D6F8140278B94FF48072BD4985
:1044A000B14800F09DFA87B23FB13A46B949284673
:1044B00001F0E1FC284601F0EFFC00BF012C01D027
:1044C000022C19D10120FFF771FF0546D5F81862BB
:1044D000D6F8140278B94FF48072AF49A34800F0BF
:1044E0007FFA87B23FB13A46AB49284601F0C3FC98
:1044F000284601F0D1FC00BFBDE8F08173B5044649
:104500002046FFF775FF0546012201A900F0D4F906
:1045100020B12046FFF7B2FF01207CBD0020FCE760
:104520002DE9F04105460C46204601F0B9FD07464D
:104530002846FFF75DFF80463A46214600F0BCF969
:1045400080B2061E02DD2846FFF798FF3046BDE820
:10455000F0812DE9F04104460D4616462046FFF74E
:1045600047FF80463246294600F0A6F980B2071E72
:1045700002DD2046FFF782FF3846BDE8F08170B5C6
:1045800004460D462046FFF72BFF0646012229462A
:1045900000F026FA08B1012070BD0020FCE72DE9EB
:1045A000F04104460D4616462046FFF719FF074620
:1045B0003246294600F0D7FA80B2BDE8F0812DE9F5
:1045C000F04104460D4616462046FFF709FF074610
:1045D0003246294600F004FA80B2BDE8F08110B5F9
:1045E000024602B96D48012A01D16C480830D0B1A9
:1045F0000B680468A3420BD14B798479A34207D19D
:104600008B794479A34203D10B790479A3420AD070
:1046100003680B6083794B7143798B7103790B715C
:104620000123CB7101E00023CB7110BD70B50446AE
:104630000D461646207820B932462946484800F0F3
:104640003BF92078012804D132462946454800F03C
:1046500033F970BD02461220088051487047024667
:10466000042008804F48704770B505460C462DB9A8
:1046700022464D494DA001F061FA04E022464A4924
:1046800053A001F05BFA484870BD70B505460C4672
:104690002246454957A001F051FA434870BD30B554
:1046A0000B46002100BF16E00A24B4EB107F05D9A9
:1046B000302404EB107403F8114005E0412404EBAE
:1046C00010740A3C03F81140000100254C00641CE2
:1046D0001D554C1CE1B29142E6DB30BD70B54A4835
:1046E0000468001D0568001D0668344454B10822A2
:1046F00046492046FFF7D3FF04224449103128469B
:10470000FFF7CDFF70BD70B505460C461A2020801E
:10471000FFF7E4FF3D48801E70BD70B505460C46AE
:104720002DB9224620493AA001F008FA04E02246B9
:104730001D4937A001F002FA1B4870BD70B505464F
:104740000C462DB92246184934A001F0F7F904E0CF
:104750002246154931A001F0F1F9134870BD00005F
:104760004C0700207C0900206407002094090020E9
:10477000200000200402002090000020940100206E
:104780007C0700207C08002028040020AC090020C1
:10479000AC0A0020AC0B0020AC0C0020B4010020BF
:1047A0003C000020500000204C06002053544D33A4
:1047B00032205669727475616C20436F6D506F7250
:1047C0007420696E204853204D6F6465000000001E
:1047D00053544D3332205669727475616C20436FA7
:1047E0006D506F727420696E204653204D6F646562
:1047F0000000000053544D6963726F656C6563740B
:10480000726F6E6963730000107AFF1F56000020FC
:1048100056435020436F6E66696700005643502030
:10482000496E7465726661636500000070B5044688
:104830000D4616461821204601F027FC2560E6604B
:104840000A206074E06868B9284601F0C9FCE0609D
:10485000E06818B900202060012070BD207C40F085
:1048600002002074207C40F0010020740020F4E756
:1048700010B5044604B910BD207C00F0020010B150
:10488000E06801F085FC00202074206000BFF2E7A2
:1048900030B5014609B9002030BD4A688B689A429C
:1048A00000D10C68934200D99C1A9A4202D9D51AB9
:1048B0000868441B601EEFE72DE9F047044689466F
:1048C00015464FF00008CA4604B115B90020BDE8EE
:1048D000F087D4E90010884201D3002060602046B0
:1048E000FFF7D6FF0746AF4203D20FB90020EEE72D
:1048F0003D46D4E90001461AAE4200D92E46626810
:10490000E16888183246494601F0A6FBB044606869
:1049100030446060AD1B55B1002060606368E268A0
:10492000D0180AEB08012A4601F096FB6560D4E92D
:104930000010884201D30020606008EB0500C6E744
:104940002DE9F0430446884615464FF000094746D6
:1049500004B115B90020BDE8F083D4E90010884205
:1049600001D3002060602168A068884201D3002044
:10497000A0602046FFF78CFF0646AE4203D20EB978
:104980000020E8E73546681E07440FE0A06818B924
:104990002068401EA06002E0A068401EA06017F8DA
:1049A0000109D4E90221885409F10109281EA5F161
:1049B0000105EBD14846CEE730B503460BB90020E0
:1049C00030BD59689A68914200D10024914200D9C3
:1049D0008C1A8A4202D9551A1868441B2046EFE700
:1049E0002DE9F0470446894615464FF00008CA46AF
:1049F00004B115B90020BDE8F0872168A06888429D
:104A000001D30020A0602046FFF7D6FF0746AF4243
:104A100003D20FB90020EEE73D46A1682068461A90
:104A2000AE4200D92E46D4E90220811832465046C3
:104A300001F012FBB044A0683044A060AD1B55B13A
:104A40000020A060D4E90232D1180AEB08002A46FF
:104A500001F002FBA5602168A068884201D3002014
:104A6000A06008EB0500C6E700B97047002141606F
:104A7000816000BFF9E72DE9F04104460F464FF091
:104A800000081CB94FF0FF30BDE8F0812046FFF769
:104A900093FF0546A6680DE02068B04200D80026C6
:104AA000E068805DB84201D14046EDE7761C6D1E9E
:104AB00008F10108002DEFD1681EE5E72DE9F84F58
:104AC00004468A4690464FF0000900200090D346E5
:104AD0002CB12046FFF770FF0646404503D24FF049
:104AE000FF30BDE8F88FA5682CE02068A84200D808
:104AF0000025E068405D9BF80010884201D101204C
:104B000000906D1C761E09F101090098D0B10127B3
:104B10000FE02068A84200D80025E068405D1BF83F
:104B20000710884202D0781E814406E06D1C761E74
:104B30007F1C474501D2002EEBD100BF474501D174
:104B40004846CEE7002ED0D1701ECAE770B50546A4
:104B50000C46204601F0A4FA064632462146284675
:104B6000FFF7AAFE70BD2DE9F84306460D4617462D
:104B7000002416B90020BDE8F8833046FFF788FE10
:104B800081463046FFF718FF8046B8F1000F0AD083
:104B9000717C3046FFF76FFF002806DAB9F1000F8D
:104BA00003D0B84501D20020E5E70FE001226946B5
:104BB0003046FFF715FF00B90BE09DF800002855BF
:104BC000285D717C884200D103E0641C781EA042FD
:104BD000ECD800BF781EA04202D10020285503E087
:104BE0000021601C044629542046C4E770B50346E2
:104BF0000C46154600220BB9002070BD5E6899680E
:104C000005E0491C521C1868884200D80021A242C5
:104C100001D28E42F5D1A24204D1D868405C2870FE
:104C20000120EAE70020E8E7FEF780FFFBF7EDFA56
:104C3000FFF796FAFFF75AF9FFF7DEFA0020FFF7C1
:104C4000DFFB0120FFF7DCFB0020FFF78DFB0120DD
:104C5000FFF78AFB30E00220FFF710FC0020FFF78F
:104C6000AAFB20B94FF480001449086002E04020FC
:104C70001249086012490020FFF7B1FC1048C079C2
:104C800018B110A10020FFF74BFC15490020FFF7D9
:104C900076FC20B1124801780020FFF72FFC01209C
:104CA000FFF789FB1E220F490120FFF778FC18B19E
:104CB0000C490120FFF734FCCDE700001818024032
:104CC0007000002055534220465320736574746968
:104CD0006E6773206368616E676564210A00000077
:104CE00078000020AC0D0020704700BFFEE700BF39
:104CF000FEE700BFFEE700BFFEE770477047704762
:104D0000704710B5FFF799F910BD00003F480068E3
:104D100040F470003D4908603D48006840F00100E3
:104D20003B49086000203A4908310860384800686B
:104D300038490840364908603748091D0860081F8F
:104D4000006820F48020091F0860002030490C31E1
:104D500008604FF000602D4980390860704770B5D9
:104D600000200022022300240221294D08352D684D
:104D700005F00C0020B1042806D0082834D107E043
:104D8000264D274E356033E0264D254E35602FE009
:104D90001F4D2D1D2D68C5F380541D4D2D1D2D68F3
:104DA00005F03F0154B11F4DB5FBF1F5184E361D0E
:104DB0003668C6F3881605FB06F209E0174DB5FB09
:104DC000F1F5134E361D3668C6F3881605FB06F25C
:104DD0000F4D2D1D2D68C5F301456D1C6B00B2FBF9
:104DE000F3F50F4E356003E00C4D0D4E356000BFFE
:104DF00000BF074D08352D68C5F303150A4E705DD9
:104E0000074D2D68C540064E356070BD88ED00E049
:104E100000380240FFFFF6FE103000240024F400AA
:104E20007C00002040787D014C62000810B50446EB
:104E30002068B0F1A04F01D1FFF7E0F9D449206814
:104E4000884201D1FFF714FA10BD0168B1F1A04FFB
:104E50000DD1D049096821F08001CE4A1160CD49B9
:104E60001031096821F48041CA4A10321160C84AE1
:104E7000016891420FD1C749091F096821F000510B
:104E8000C44A121F1160C3491031096821F48041DE
:104E9000C04A10321160704710B5044604F56F71B6
:104EA000D4F8EC0300F0F8F910BD70B504460D46D7
:104EB000C5EBC50304F5FC7101EB8301CA68294603
:104EC000D4F8EC0300F01FFA70BD70B504460D462F
:104ED000C5EBC50304F1380101EB8301CA6829461B
:104EE000D4F8EC0300F052FA70BD10B50446D4F8C3
:104EF000EC0300F0EFFA10BD70B504460125E06840
:104F000010B1022804D101E0002503E0012501E0F1
:104F1000012500BF00BFD4F8EC0300F0A4FA294635
:104F2000D4F8EC0300F0C1FA70BD10B50446D4F813
:104F3000EC0300F0BEFA10BD10B50446D4F8EC0343
:104F400000F0C1FA10BD70B504460D462946D4F8EC
:104F5000EC0300F0D3FA70BD70B504460D46294647
:104F6000D4F8EC0300F0C7FA70BD10B50446D4F8CD
:104F7000EC0300F0C6FA10BD10B50446D4F8EC03FB
:104F800000F0C2FA10BD10B50446207800282AD1DE
:104F90004FF0A040804908600420486000217E480E
:104FA00001634021416100210161016202218161AF
:104FB0000021C1610221C1600021C1624162C0F8CB
:104FC000EC43C4F82002FBF7B8FD80217248FCF7DF
:104FD0004CFC402200217048FCF71EFC802201217D
:104FE0006D48FCF719FC2078012829D168486B49E5
:104FF0000860062048600021684801634021416143
:105000000021016101624162012181610021C160D1
:10501000C161C162C0F8EC43C4F82002FBF78DFD0A
:105020004FF400715D48FCF720FC802200215B48B2
:10503000FCF7F2FB4FF4BA7201215848FCF7ECFB85
:10504000002010BD10B50446D4F82002FBF734FE52
:10505000002010BD10B50446D4F82002FBF73FFE37
:10506000002010BD10B50446D4F82002FBF707FE5F
:10507000002010BD2DE9F04104460F4615461E469E
:105080002B4632463946D4F82002FCF71BFA0020A2
:10509000BDE8F08170B504460D462946D4F82002DB
:1050A000FCF756FA002070BD70B504460D4629463F
:1050B000D4F82002FCF76CFB002070BD70B50446EC
:1050C0000D462946D4F82002FCF7F1FA002070BD05
:1050D00070B504460D462946D4F82002FCF724FB9F
:1050E000002070BD10B50246D2F8203201F08000D9
:1050F000802809D101F07F00C0EBC00403F1380023
:1051000000EB8400807810BD01F07F00C0EBC0048C
:1051100003F5FC7000EB84008078F4E770B504467A
:105120000D462946D4F82002FCF7B3F9002070BDE3
:105130002DE9F04104460D4616461F463B463246D1
:105140002946D4F82002FCF785FA0020BDE8F0815A
:105150002DE9F04104460D4616461F463B463246B1
:105160002946D4F82002FCF73DFA0020BDE8F08182
:1051700070B504460D462946D4F82002FCF75EFAC5
:1051800070BD10B504462046FEF7C5FF10BD0000F7
:105190000000044034380240CC0D0020BC11002037
:1051A00070B504460D46164654B9DEA000F0BEFFA9
:1051B000DEA000F0BBFFE3A000F0B8FF022070BD4E
:1051C000D4F8140210B10020C4F814020DB1C4F8D0
:1051D0001052012084F8FC0126702046FFF7D3FE10
:1051E0000020ECE710B50446012084F8FC01217989
:1051F000D4F814024268204690472046FFF732FF59
:105200002046FFF71FFF002010BD70B505460C4675
:10521000002614B1C5F8144209E0C2A000F086FFD0
:10522000C9A000F083FFC7A000F080FF022630462F
:1052300070BD10B504462046FFF70CFF002010BDDE
:1052400010B504462179D4F81402426820469047EC
:105250002046FFF707FF002010BD014600207047E1
:1052600070B504460D460226D4F8140238B1D4F8BD
:105270001402294602682046904700B900263046AD
:1052800070BD70B504460D46D4F814022946426834
:1052900020469047002070BD70B504460D46294653
:1052A00004F5027000F02CFC0120C4F8F40140F277
:1052B0000E20005BC4F8F80194F8080200F01F000B
:1052C00020B1012808D0022812D10BE004F50271A8
:1052D000204600F00AFB13E004F50271204600F0BE
:1052E0003DFB0DE004F50271204600F05CFB07E099
:1052F00094F8080200F080012046FFF7DFFE00BFAF
:1053000000BF002070BD2DE9F04105460E4617464E
:105310005EBB05F58274D5F8F401032833D1D4E9D6
:105320000201884210D9D4E90201401AA060D4E9F0
:105330000201884201D2A06800E0E06882B23946EA
:10534000284600F055FC1EE0D5F81402006940B173
:1053500095F8FC01032804D1D5F814020169284608
:105360008847284600F050FC0DE0D5F8140280690B
:1053700048B195F8FC01032805D1D5F8140231464F
:105380008269284690470020BDE8F0812DE9F04170
:1053900004460E461746002E54D104F11405D4F8E5
:1053A000F401022843D1D5E90201884210D9D5E998
:1053B0000201401AA860288982B23946204600F0CE
:1053C000F7FB00231A4619462046FFF7C1FE2EE0E0
:1053D000E9686868B0FBF1F201FB1200B8B9E9684E
:1053E0006868884213D36868D4F8F81188420ED2EE
:1053F00000221146204600F0DBFB0020C4F8F80133
:1054000000231A4619462046FFF7A2FE0FE0D4F803
:105410001402C06840B194F8FC01032804D1D4F808
:105420001402C16820468847204600F0FAFB94F831
:105430000002012814D12046FFF70FFF002084F856
:1054400000020DE0D4F81402406948B194F8FC0160
:10545000032805D1D4F8140231464269204690470A
:105460000020BDE8F08110B504464023002211461B
:105470002046FFF7FFFD40214FF488700151402383
:10548000002280212046FFF7F5FD40212162012006
:1054900084F8FC01D4F8180228B12179D4F8140258
:1054A000426820469047002010BD0246117400203B
:1054B0007047014691F8FC0181F8FD01042081F854
:1054C000FC0100207047014691F8FD0181F8FC01C4
:1054D0000020704710B5044694F8FC01032808D159
:1054E000D4F81402C06920B1D4F81402C16920466E
:1054F0008847002010BD0246002070470246002069
:10550000704701460020704710B50446012084F81A
:10551000FC012179D4F8140242682046904700200B
:1055200010BD00004552524F523A2000496E76613C
:105530006C6964204465766963652068616E646C9B
:10554000650000000A000000496E76616C69642005
:10555000436C6173732068616E646C6500000000C9
:1055600070B504460D4680212046FFF7A7FD0021B7
:105570002046FFF7A3FD70BD70B504460D4694F8B4
:10558000FC01022802D0032811D100E000BF688886
:1055900001280BD10020C4F80402D4F814022946D3
:1055A000826820469047204600F02EFB04E0294602
:1055B0002046FFF7D5FF00BF00BF70BD70B50446A1
:1055C0000D46688801280AD1C4F80402D4F81402F0
:1055D0002946826820469047204600F015FB70BDA2
:1055E00070B504460D4694F8FC01022802D0032849
:1055F00011D100E000BF0120E060D4F8040218B12E
:10560000E06840F00200E060022204F10C01204654
:1056100000F0BDFA04E029462046FFF7A1FF00BFD5
:1056200000BF70BD70B504460D46E888012804D05F
:1056300029462046FFF794FF1BE094F8FC0102285E
:1056400002D003280FD108E00020A060012204F15D
:105650000801204600F09BFA0AE00122211D2046A5
:1056600000F095FA04E029462046FFF779FF00BFD5
:1056700000BF70BD70B504460D46A878FD4908709E
:1056800008460078012804DD29462046FFF768FF18
:105690005BE094F8FC01022802D003284FD11CE003
:1056A000F4480078A8B1F34800786060032084F8DB
:1056B000FC01F04801782046FFF7D2FD022804D112
:1056C00029462046FFF74CFF70BD204600F09CFAAB
:1056D00002E0204600F098FA36E0E648007870B91B
:1056E000022084F8FC01E34800786060E14801781A
:1056F0002046FFF7C6FD204600F086FA1EE0DD4991
:1057000009786068884216D021792046FFF7B9FDF4
:10571000D84800786060D74801782046FFF7A0FDA0
:10572000022804D129462046FFF71AFFCCE720467D
:1057300000F06AFA02E0204600F066FA04E029462A
:105740002046FFF70DFF00BF00BF00BFBCE770B5EC
:1057500004460D46A888F8B9E888E8B9A87800F0AA
:105760007F0694F8FC01032804D129462046FFF760
:10577000F7FE15E084F8FE6131462046FFF7CEFCC7
:10578000204600F041FA1EB1022084F8FC0107E037
:10579000012084F8FC0103E029462046FFF7E0FEE3
:1057A00070BDF8B504460E467088001208287FD2F6
:1057B000DFE800F07E040C207E7E5F6E207CD4F853
:1057C00010120A6869469047054676E0207C40B989
:1057D000D4F81402816A6846884705460221697038
:1057E00007E0D4F81402C16A6846884705460221DA
:1057F000697062E0B078062834D2DFE800F0030B6D
:10580000131B232B207CD4F810124A68694690475A
:1058100005462CE0207CD4F810128A68694690472F
:10582000054624E0207CD4F81012CA6869469047E7
:1058300005461CE0207CD4F810120A69694690479E
:10584000054614E0207CD4F810124A696946904756
:1058500005460CE0207CD4F810128A69694690470E
:10586000054604E031462046FFF77AFEF8BD00BF4A
:1058700023E0207C30B9D4F81402416B6846884795
:1058800005461AE031462046FFF76AFEEEE70FE0D4
:10589000207C40B9D4F81402016B6846884705465D
:1058A0000721697009E031462046FFF759FEDDE720
:1058B00031462046FFF754FED8E700BFBDF8000090
:1058C00088B1F08878B1F088BDF80010884202DD18
:1058D000BDF8000000E0F0880090BDF800202946E7
:1058E000204600F054F900BFC0E770B505460C46ED
:1058F000002660780A2829D2DFE800F01923281E44
:10590000280A0528140F21462846FFF74AFF22E0FF
:1059100021462846FFF71BFF1DE021462846FFF7DA
:10592000A9FE18E021462846FFF77CFE13E0214639
:105930002846FFF755FE0EE021462846FFF73EFEBB
:1059400009E021462846FFF717FE04E021462846D5
:10595000FFF706FE00BF00BF304670BD70B50446BD
:105960000D46002694F8FC01032814D1287901285B
:105970000CDCD4F814022946826820469047E88857
:1059800040B93EB9204600F03FF903E029462046E1
:10599000FFF7E6FD04E029462046FFF7E1FD00BFE2
:1059A00000BF002070BD2DE9F04105460E464FF0C6
:1059B00000083479307800F06000202808D1D5F84C
:1059C000140231468268284690470020BDE8F081E5
:1059D0007078002857D001282AD003287CD195F868
:1059E000FC01022802D003281BD107E02CB1802C37
:1059F00003D021462846FFF761FB17E0708830B9D5
:105A00002CB1802C03D021462846FFF757FBD5F850
:105A100014023146826828469047284600F0F4F880
:105A200004E031462846FFF79BFD00BF00BF64E05D
:105A300095F8FC01022802D003281DD107E02CB103
:105A4000802C03D021462846FFF738FB19E07088E8
:105A500078B904F07F0048B121462846FFF738FBAB
:105A6000D5F814023146826828469047284600F04F
:105A7000CBF806E08000002031462846FFF770FD95
:105A800000BF00BF39E095F8FC01022802D00328CE
:105A90002BD107E004F07F0018B121462846FFF71C
:105AA0000DFB27E004F08000802806D104F07F0180
:105AB00005F1140000EB011005E004F07F0105F58D
:105AC000827000EB0110074621462846FFF70AFBCB
:105AD00018B10120386002E00EE000203860022298
