:020000040800F2
:1000000058250020A90100082547000827470008B7
:100010002B4700082F470008334700080000000066
:10002000000000000000000000000000374700084A
:1000300039470008000000003B4700083F47000820
:10004000C3010008C3010008C3010008C301000880
:10005000C3010008C3010008C3010008C301000870
:10006000C3010008C3010008C3010008C301000860
:10007000C3010008C3010008C3010008C301000850
:10008000C3010008C3010008C3010008000000000C
:10009000000000000000000000000000C301000894
:1000A000C3010008C3010008C3010008C301000820
:1000B000C3010008C3010008C3010008C301000810
:1000C000C3010008C3010008C3010008C301000800
:1000D000C3010008C3010008C301000800000000BC
:1000E000C3010008C3010008C301000800000000AC
:1000F000000000000000000000000000C301000834
:1001000000000000C3010008C3010008C30100088B
:1001100000000000000000000000000000000000DF
:10012000C3010008C3010008C3010008C30100089F
:10013000C3010008000000000000000000000000F3
:10014000000000000000000000000000633E000806
:10015000C3010008C3010008C3010008C30100086F
:10016000C3010008C30100080000000000000000F7
:10017000000000000000000000000000000000007F
:1001800000000000C30100080000000000000000A3
:10019000C3010008DFF80CD005F034FC004800472C
:1001A0006546000858250020064880470648004755
:1001B000FEE7FEE7FEE7FEE7FEE7FEE7FEE7FEE717
:1001C000FEE7FEE74947000895010008704770B553
:1001D0000446674800684FF47A71B0FBF1F5284691
:1001E00000F06EF900222146501E00F0F3F80020C6
:1001F00070BD10B55F48006840F400705D4908604C
:100200000846006840F4806008600846006840F4D2
:1002100080700860032000F0CBF80F20FFF7D7FFB5
:1002200000F028FC002010BD704710B54FF0FF30E3
:100230005149086000200860401E091D0860002028
:100240000860401E4C491039086000200860401EBC
:10025000091D086000200860401E091D086000207C
:10026000086000F008FC002010BD44480068401CF5
:1002700042490860704741480068704731B503F053
:100280003DFD0546009C601C00B1641C00BF03F0EE
:1002900035FD401BA042FAD338BD4FF0E020006985
:1002A00020F002004FF0E021086170474FF0E0209D
:1002B000006940F002004FF0E021086170473048CB
:1002C000704730480068000C70472E480068C0F343
:1002D0000B0070472B48406840F0010029494860F6
:1002E00070472848406820F0010026494860704760
:1002F0002448406840F00200224948607047214885
:10030000406820F002001F49486070471D4840685F
:1003100040F004001B49486070471A48406820F0CC
:100320000400184948607047012090FAA0F1B1FA22
:1003300081F1154A02EB8101C1F8000470470020E9
:10034000012191FAA1F1B1FA81F10F4A02EB810189
:10035000C1F8000470470D49096801600B49091D87
:1003600009684160094908310968816070470000E7
:100370007C000020003C02402038024000000020A9
:1003800000010701002004E000002742107AFF1F4F
:1003900010B5002807DA0A07140ED94A00F00F0337
:1003A0001B1FD45403E00A07130ED64A135410BD82
:1003B00000BF00F00702D24B0C3B19684FF6FF0359
:1003C0001940D14B0B4343EA0221CD4B0C3B196042
:1003D00000BF70472DE9F05F80460D4616460027A6
:1003E00000F087F9074639462A46334601F00700F0
:1003F000C0F1070ABAF1040F02D94FF0040A01E074
:10040000C0F1070AD14600F1040ABAF1070F02D27F
:100410004FF0000A01E0A0F1030AD4464FF0010AB0
:100420000AFA09FAAAF1010A0AEA020A0AFA0CFA15
:100430004FF0010B0BFA0CFBABF1010B0BEA030BBA
:100440004AEA0B0421464046FFF7A2FFBDE8F09FB1
:1004500000BF00F01F02012191404209920002F109
:10046000E022C2F8001100BF704700BF00F01F0279
:1004700001219140A54A430942F8231000BF70476B
:1004800000BF00BF00BF00BF00BFBFF34F8F00BF62
:1004900000BF00BF9A480C38006800F4E0609A4939
:1004A0000843001D96490C39086000BF00BF00BF1B
:1004B000BFF34F8F00BF00BF00BF00E000BFFDE7EC
:1004C00070B504462546681EB0F1807F01D3012037
:1004D0000FE0681E4FF0E02148610F214FF0FF3020
:1004E000FFF756FF00204FF0E021886107200861E8
:1004F000002070BD00BF00BF00BFBFF35F8F00BF13
:1005000000BF00BF7E480C30006820F480307C497A
:100510000C31086000207A497C310860704740F057
:100520000101774A7C32116075490C31096841F448
:100530008031734A0C32116000BF00BF00BFBFF3AF
:100540004F8F00BF00BF00BF00BF00BF00BFBFF3A1
:100550006F8F00BF00BF00BF70474178684A80328C
:1005600011600178F9B1121D41681160017B090722
:10057000C27A41EA0261827A41EAC241427B41EA9F
:100580008241827B41EA4241C27B41EA0241427A96
:1005900041EA0221027A41EA420102781143584AB3
:1005A0008832116005E00021554A84321160121D25
:1005B0001160704710B500F09CF810BD2DE9F043B4
:1005C00004462046002808DA4D4F00F00F0CACF12D
:1005D000040C17F80C703F0902E04A4F3F5C3F09DA
:1005E0003D460E4606F00700C0F10708B8F1040FBB
:1005F00002D94FF0040801E0C0F10708C44600F139
:100600000408B8F1070F02D24FF0000801E0A0F192
:100610000308474625FA07F84FF0010909FA0CF9D3
:10062000A9F1010908EA0908C2F800804FF00108A1
:1006300008FA07F8A8F1010808EA0508C3F80080DD
:1006400000BFBDE8F08300BF00F01F020121914010
:100650002E4A8032430942F8231000BF704710B57C
:1006600001460846294A8032430952F8232000F007
:100670001F040123A3401A400AB1012200E0002216
:10068000104610BD00BF00F01F0201219140204A1A
:10069000430942F8231000BF704710B501460846D1
:1006A0001B4A8032430952F8232000F01F04012323
:1006B000A3401A400AB1012200E00022104610BDFA
:1006C000042808D14FF0E021096941F004014FF0FE
:1006D000E022116107E04FF0E021096921F00401F7
:1006E0004FF0E02211617047704710B5FFF7FCFF33
:1006F00010BD03480C380068C0F3022070470000AA
:1007000018ED00E000E400E00000FA0580E100E000
:1007100080E200E0F8B503460A46002500240020E8
:100720000021CDE0012606FA01F5166806EA050467
:10073000AC4273D15668022E02D05668122E13D1E5
:10074000CF0803F1200656F827004E07F70E0F26B4
:10075000BE40B0434F07FF0E1669BE403043CF087E
:1007600003F1200646F8270018684F000326BE4014
:10077000B043167906F003064F00BE4030431860C0
:100780005668012E08D05668022E05D05668112EE4
:1007900002D05668122E13D198684F000326BE402F
:1007A000B0434F00D668BE40304398605868012679
:1007B0008E40B0431679C6F300168E403043586021
:1007C000D8684F000326BE40B0434F009668BE4035
:1007D0003043D860566806F08056B6F1805F6ED11F
:1007E00000BF002600969B4E366846F48046994F1F
:1007F0003E603E46366806F48046009600BF00BF65
:10080000954E8F0856F827008E07370F0F26BE40EB
:10081000B043924EB34202D1002615E04FE0904E15
:10082000B34201D101260FE08E4EB34201D1022620
:100830000AE08D4EB34201D1032605E08B4EB34250
:1008400001D1042600E007268F073F0FBE4030434A
:10085000814E8F0846F82700854E3068A0435668C1
:1008600006F48036B6F5803F00D12043804E3060DC
:10087000361D3068A043566806F40036B6F5003FD2
:1008800000D120437A4E361D3060361D3068A043BB
:10089000566806F48016B6F5801F00D12043744ECA
:1008A00008363060361D3068A043566806F40016DE
:1008B000B6F5001F00D120436D4E0C363060491C48
:1008C0001029FFF42FAFF8BDF0B50C46002500222B
:1008D0000023002181E0012606FA01F504EA050261
:1008E000AA4279D106684FEA410C032707FA0CF7B0
:1008F000BE430660CF0800F1200656F827604F0778
:100900004FEAD76C0F2707FA0CF7BE434FEAD10C1A
:1009100000F1200747F82C6086684FEA410C032756
:1009200007FA0CF7BE438660476801268E40B7433E
:100930004760C6684FEA410C032707FA0CF7BE432D
:10094000C660454E8F0856F827308E07370F0F26A2
:10095000BE403340414EB04201D1002614E0404E2B
:10096000B04201D101260FE03E4EB04201D1022635
:100970000AE03D4EB04201D1032605E03B4EB042B5
:1009800001D1042600E007268F073F0FBE409E429C
:1009900022D18E07370F0F2606FA07F32E4E8F0847
:1009A00056F827609E432C4F4FEA910C47F82C6075
:1009B0002F4E366896432E4F3E603E1D3668964356
:1009C0003F1D3E603E1D366896433F1D3E603E1D06
:1009D000366896433F1D3E60491C1029FFF47BAFEB
:1009E000F0BD024613690B400BB1012000E000206E
:1009F00070470AB1816101E00B048361704742696D
:100A00004A404261704708B502464FF4803000907A
:100A10000098084300900098D061D1610098D0619F
:100A2000D0690090D06900F4803008B1002008BD82
:100A30000120FCE7704710B504460D4814300068EB
:100A4000204028B10A48143004602046FFF7F2FF26
:100A500010BD000044380240083801400000024048
:100A60000004024000080240000C02400010024056
:100A7000003C01407047704770477047704730B581
:100A80008BB00446002514B901200BB030BD032003
:100A900084F8B903204603F0E7FE206801F0B4FBB8
:100AA000282204F11001684604F080FF94E80F004A
:100AB00001F06DFB0021206801F0ADFB002530E066
:100AC0000121C5EBC50204F1380000EB8200417042
:100AD000C5EBC50204F1380000F82250C5EBC50291
:100AE00000EB8200C5800021C5EBC50204F138008F
:100AF00000EB8200C170C5EBC50204F1380000EBC9
:100B000082008160C5EBC50204F1380000EB820071
:100B1000C160C5EBC50204F1380000EB8200416101
:100B20006D1C0F2DCCD3002536E00021C5EBC5028E
:100B300004F5FC7000EB82004170C5EBC50204F5C2
:100B4000FC7000F82250C5EBC50204F1380000EB40
:100B50008200C580C5EBC50204F5FC7000EB820085
:100B6000C170C5EBC50204F5FC7000EB820081602A
:100B7000C5EBC50204F5FC7000EB8200C160C5EB5B
:100B8000C50204F5FC7000EB82004161206800F5AD
:100B9000827040F825106D1C0F2DC6D3282204F159
:100BA0001001684604F002FF94E80F0001F07CFB9E
:100BB000012084F8B903206802F09AF9002064E764
:100BC000704710B5044600BF94F8B803012801D15E
:100BD000022010BD012084F8B80300BF206801F096
:100BE00013FB206802F03AF9206802F081F900BF97
:100BF000002084F8B80300BF00BFEAE710B5044640
:100C00000CB9012010BD032084F8B9032046FFF77A
:100C1000D8FF204603F031FE002084F8B90300BF5E
:100C2000F0E710B5044600BF94F8B803012801D1DD
:100C3000022010BD012084F8B80300BF206802F034
:100C400048F9206801F0D9FA00BF002084F8B80301
:100C500000BF00BFEDE770477047704770477047AF
:100C60007047704770472DE9F84F07460E46D7F892
:100C700000800025AA46C6EBC60107F1380000EB4C
:100C80008104D4E90501451AA068A84200D2A568EC
:100C9000E81C4FEA900917E0D4E90501451AA0685D
:100CA000A84200D2A568E81C4FEA9009387CABB294
:100CB000F2B200904046E16801F0DAFDE0682844B5
:100CC000E060A0692844A06108F5106000EB4610C0
:100CD000806980B2484506D9D4E90510884202D21D
:100CE00060690028D8D165B9012000FA06FA40F6FB
:100CF000340050F8080020EA0A0040F6340141F8B8
:100D000008000020BDE8F88F7047704770472DE954
:100D1000FC5F044626684FF0000B002001908146DE
:100D2000002500908046F84F206802F02DF9002839
:100D30006CD1206802F0EBF808B9BDE8FC9F206890
:100D400002F0E5F800F00200022805D120684069B1
:100D500000F0020021684861206802F0D8F800F431
:100D60000020B0F5002F7DD10025206802F0D5F8D5
:100D7000019075E0019800F0010000286CD0E9B204
:100D8000206802F0DCF8814609F00100E8B3012197
:100D900006F5306000EB45108160206901282BD1F9
:100DA000C5EBC50104F5FC7000EB8100816806F518
:100DB000306000EB45100069C0F31200091AC5EB62
:100DC000C50204F5FC7000EB82008161C5EBC50132
:100DD00004F5FC7000EB8100C5EBC502C16804F5A9
:100DE000FC7000EB820080680144C5EBC50204F58D
:100DF000FC7000EB8200C160E9B2204603F059FDAF
:100E00002069012811D105B901E00EE0B3E2C5EB7C
:100E1000C50104F5FC7000EB8100406928B904F5B8
:100E20006F720121206802F0D6F809F00800082846
:100E300008D1204603F034FD082106F5306000EBB0
:100E40004510816009F01000102805D1102106F529
:100E5000306000EB451081606D1C019840080190E6
:100E6000019800E001E0002884D1206802F04FF8EA
:100E700000F48020B0F5802F7DD1206802F056F874
:100E80000190002585E0019800F0010000287CD049
:100E9000E9B2206802F05EF8814609F00100E8B38B
:100EA0000120A840009040F6340080590099884302
:100EB00040F634018851012106F5106000EB451021
:100EC00081602069012815D1C5EBC50104F1380006
:100ED00000EB8100C5EBC502C16804F1380000EBEE
:100EE000820080680144C5EBC50204F1380000EBC4
:100EF0008200C160E9B2204603F0EBFC20690128C2
:100F000010D15DB9C5EBC50104F1380000EB8100DB
:100F1000406918B904F56F72012100E002E0206811
:100F200002F059F809F00800082805D1082106F553
:100F3000106000EB4510816009F01000102805D109
:100F4000102106F5106000EB4510816009F04000AB
:100F5000402805D1402106F5106000EB4510816066
:100F600009F00200022805D1022106F5106000EB0D
:100F70004510816001E010E007E009F08000802862
:100F800003D129462046FFF76EFE6D1C01984008EC
:100F90000190019800287FF476AF206801F0B7FF38
:100FA00000F00040B0F1004F10D140F6040080592D
:100FB00020F0010140F604008151204603F0C0FCFE
:100FC0002068406900F0004021684861206801F015
:100FD0009EFF00F40060B0F5006F0ED140F60800EF
:100FE000805900F0010010B1204603F0A2FC2068F7
:100FF000406900F4006021684861206801F087FFC3
:1010000000F48050B0F5805F5CD140F60400805958
:1010100020F0010140F6040081511021206801F008
:1010200025F94FF0000B0CE0FF2106F5106000EBF6
:101030004B10816006F5306000EB4B1081600BF1C6
:10104000010B60685845EFD84FF0FF3140F61800AB
:101050008151001D805940F0011140F61C00815162
:10106000206B70B1D6F8840840F00B01C6F88418E4
:1010700040F64400805940F00B0140F64400815195
:101080000EE040F61400805940F00B0140F61400C9
:101090008151001F805940F00B014FF401608151D4
:1010A000D6F8000820F4FE60C6F80008217C04F59C
:1010B0006F72206801F08FFF2068406900F4805053
:1010C00021684861206801F022FF00F40050B0F56B
:1010D000005F70D1206801F05CFF2068C06820F4D8
:1010E00070502168C860206801F0A5F970B900212E
:1010F000E1604FF4007161612068C06840F41050F5
:101100002168C86085E000000095BA0A0321E1600B
:101110004021616100F014FF0746F948874209D376
:10112000F848874206D22068C06840F470502168B1
:10113000C8606EE0F348874209D3F348874206D27D
:101140002068C06840F460502168C86061E0EE48E3
:10115000874209D3ED48874206D22068C06840F430
:1011600050502168C86054E0E848874209D3E848F5
:10117000874206D22068C06840F440502168C860A9
:1011800047E0E348874209D3E248874206D2206815
:10119000C06840F430502168C8603AE0DD488742BA
:1011A0000AD3DD48874207D22068C06840F4205047
:1011B0002168C8602DE035E0D748874209D3D74879
:1011C000874206D22068C06840F410502168C86089
:1011D0001FE0D248874209D3D148874206D220680F
:1011E000C06840F400502168C86012E0CC488742D3
:1011F00009D3CC48874206D22068C06840F4E0504A
:101200002168C86005E02068C06840F4C0502168CB
:10121000C860204603F074FB2068406900F4005069
:1012200021684861206801F072FE00F0100010286B
:1012300045D12068806920F0100021688861D6F8C7
:10124000208008F00F00C0EBC00104F5FC7000EB3B
:10125000810AC8F3434002281AD147F6F07008EA21
:10126000000030B3C8F30A123046DAF80C1001F06F
:1012700058FDC8F30A11DAF80C000844CAF80C004B
:10128000C8F30A11DAF818000844CAF8180010E088
:10129000C8F3434006280CD1082204F56F7130468C
:1012A00001F03FFDC8F30A11DAF818000844CAF843
:1012B00018002068806940F010002168886120686B
:1012C00001F025FE00F00800082808D1204603F0B0
:1012D00010FB2068406900F0080021684861206820
:1012E00001F015FE00F48010B0F5801F09D1E9B2BD
:1012F000204603F035FB2068406900F48010216827
:101300004861206801F003FE00F40010B0F5001FF2
:1013100009D1E9B2204603F01AFB2068406900F4C5
:10132000001021684861206801F0F1FD00F0804064
:10133000B0F1804F08D1204603F01BFB20684069C4
:1013400000F0804021684861206801F0E0FD00F075
:10135000040004280FD12068D0F8048008F00400AD
:10136000042802D1204603F00BFB2068406840EAC5
:1013700008002168486000BFDFE410B5044600BFE4
:1013800094F8B803012801D1022010BD012084F88F
:10139000B80300BF206801F09CFD00BF002084F866
:1013A000B80300BF00BFF0E710B5044600BF94F8D3
:1013B000B803012801D1022010BD012084F8B80330
:1013C00000BF206801F094FD00BF002084F8B8033E
:1013D00000BF00BFF0E770B504460D4600BF94F8AB
:1013E000B803012801D1022070BD012084F8B803A0
:1013F00000BF2946206801F05AFD00BF002084F894
:10140000B80300BF00BFEFE72DE9F04705460E46E1
:1014100090461F464FF0000906F08000802808D152
:1014200006F07F00C0EBC00105F1380000EB81043D
:1014300007E006F07F00C0EBC00105F5FC7000EB93
:10144000810406F07F00207006F08000C009607003
:10145000C4F80880E770607808B12078E080022F37
:1014600001D10020207100BF95F8B803012802D1F6
:101470000220BDE8F087012085F8B80300BF2146AF
:10148000286800F0FAFF00BF002085F8B80300BF0D
:101490004846EEE770B504460D4605F0800080280A
:1014A00008D105F07F00C0EBC00104F1380000EB6B
:1014B000810607E005F07F00C0EBC00104F5FC7079
:1014C00000EB810605F07F00307005F08000C00958
:1014D000707000BF94F8B803012801D1022070BDDC
:1014E000012084F8B80300BF3146206801F0BEF83F
:1014F00000BF002084F8B80300BF00BFEFE7000082
:10150000C0ACD800C0E1E4000024F4008073060100
:10151000A0491A01002D310140A44C0100366E0192
:1015200020ABA6010048E8012DE9F04104460E4633
:101530001746984606F07F00C0EBC00104F5FC702A
:1015400000EB8105EF60C5F814800020A861687089
:1015500006F07F0028702069012800D12F6106F075
:101560007F0028B9227C2946206801F007FB04E0AF
:10157000227C2946206801F093F90020BDE8F08123
:10158000024601F00F00C0EBC00302F5FC7000EB57
:101590008300008B80B270472DE9F04104460E466F
:1015A0001746984606F07F00C0EBC00104F13800F2
:1015B00000EB8105EF60C5F814800020A8610120D0
:1015C000687006F07F0028702069012800D12F6123
:1015D00006F07F0028B9227C2946206801F0CEFA67
:1015E00004E0227C2946206801F05AF90020BDE879
:1015F000F08170B504460D4605F08000802808D1C2
:1016000005F07F00C0EBC00104F1380000EB81065B
:1016100005E0C5EBC50104F5FC7000EB8106012077
:10162000B07005F07F003070C5F3C010707000BF5F
:1016300094F8B803012801D1022070BD012084F87C
:10164000B80300BF3146206801F07CFB05F07F0045
:1016500028B9217C04F56F72206801F0BCFC00BF42
:10166000002084F8B80300BF00BFE6E770B5044669
:101670000D4605F08000802808D105F07F00C0EB02
:10168000C00104F1380000EB810605E0C5EBC5019F
:1016900004F5FC7000EB81060020B07005F07F00BF
:1016A0003070C5F3C010707000BF94F8B803012803
:1016B00001D1022070BD012084F8B80300BF31467B
:1016C000206801F085FB00BF002084F8B80300BF4C
:1016D00000BFEFE770B504460D4600BF94F8B803AD
:1016E000012801D1022070BD012084F8B80300BF99
:1016F00005F08000802805D105F07F01206800F00A
:10170000B5FD02E0206800F09EFD00BF002084F8D7
:10171000B80300BF00BFE6E70246116840F60800C4
:10172000405800F0010038B140F60400405840F045
:10173000010340F6040043500020704701460A6848
:1017400040F60400805820F0010340F60400835066
:1017500000207047014691F8B9037047F0B5034681
:101760001446002500221868426A21B942EA044062
:101770001E68B06219E01868806A02EB104200250A
:1017800008E0186800F5827050F8250002EB10425E
:10179000681CC5B2481EA842F3DC42EA0447186838
:1017A00000F582704E1E40F826700020F0BD024603
:1017B0001068416200207047704738B50446002524
:1017C000207800F00100002874D0F748006800F08D
:1017D0000C0004280DD0F448006800F00C00082824
:1017E00013D1F148001F006800F48000B0F5800FAD
:1017F0000BD1ED4808380068C0F34040002859D0AC
:101800006068002856D1012038BD00BF6068B0F57F
:10181000803F08D1E4480838006840F48030E2494D
:10182000083908601EE06068B0F5A02F0DD1DE48D1
:101830000838006840F48020DB4908390860084611
:10184000006840F4803008600CE0D7480838006831
:1018500020F48030D449083908600846006820F434
:101860008020086000BF606890B102F047FA05462A
:1018700006E002F043FA401B642801D90320C3E7C5
:10188000C94808380068C0F340400028F1D011E092
:1018900002F034FA054606E002F030FA401B6428F4
:1018A00001D90320B0E7C04808380068C0F34040C1
:1018B0000028F1D1207800F00200022869D1BA484E
:1018C000006800F00C0058B1B748006800F00C0048
:1018D000082821D1B448001F006800F48000D8B95E
:1018E000B14808380068C0F3400020B1E068012822
:1018F00001D0012088E7AC480838006820F0F800E3
:10190000F82292FAA2F2B2FA82F2216991400843D7
:10191000A549083908603CE0E06828B30120A349E4
:10192000086002F0EBF9054606E002F0E7F9401B1B
:10193000022801D9032067E79B4808380068C0F3F4
:1019400040000028F1D098480838006820F0F800DE
:10195000F82292FAA2F2B2FA82F221699140084387
:1019600091490839086014E000209049086002F0AD
:10197000C5F9054606E002F0C1F9401B022801D96D
:10198000032041E7884808380068C0F34000002879
:10199000F1D1207800F0080008282CD16069A8B1A6
:1019A00001208349086002F0A9F9054606E002F02B
:1019B000A5F9401B022801D9032025E77A486C309D
:1019C0000068C0F340000028F1D014E000207849FE
:1019D000086002F093F9054606E002F08FF9401B1B
:1019E000022801D903200FE76F486C300068C0F36C
:1019F00040000028F1D1207800F0040004287FD1B5
:101A000000BF0020009068483830006840F08050E7
:101A10006549383108600846006800F08050009041
:101A200000BF00BF6348006840F4807061490860EF
:101A300002F064F9054606E002F060F9401B022856
:101A400001D90320E0E65B48006800F480700028BC
:101A5000F2D000BFA068012808D153486830006860
:101A600040F001005049683108601DE0A068052879
:101A70000DD14D486830006840F004004A49683193
:101A800008600846006840F0010008600CE0464825
:101A90006830006820F0010043496831086008465A
:101AA000006820F00400086000BFA068A0B102F048
:101AB00025F9054608E002F021F9401B41F2883182
:101AC000884201D903209FE6374868300068C0F398
:101AD00040000028EFD013E002F010F9054608E0BE
:101AE00002F00CF9401B41F28831884201D90320F1
:101AF0008AE62D4868300068C0F340000028EFD126
:101B0000A069E8B32848006800F00C00082870D0ED
:101B1000A069022857D100202449086602F0EEF897
:101B2000054606E002F0EAF8401B022801D903202E
:101B30006AE61D4808380068C0F340600028F1D10B
:101B4000D4E90701084347F6C07292FAA2F2B2FA4A
:101B500082F2616A914008430122A16AC2EB5101FD
:101B60004FF4403292FAA2F2B2FA82F29140084364
:101B70004FF0706292FAA2F2B2FA82F2E16A00E0E9
:101B800039E0914008430849091F086001200749CE
:101B9000086602F0B3F805460EE002F0AFF8401B0D
:101BA000022809D903202FE60838024000004742E6
:101BB000800E474200700040FC480068C0F340605F
:101BC0000028EAD017E00020F949086602F096F8EC
:101BD000054606E002F092F8401B022801D90320D6
:101BE00012E6F2480068C0F340600028F2D102E03B
:101BF000FFE7012008E6002006E670B5002100227C
:101C000000230020E94C0834246804F00C0424B1BB
:101C1000042C04D0082C41D103E0E64840E0E6481B
:101C20003EE0E24C241D246804F03F01DF4C241DFB
:101C3000246804F4800484B1DF4CB4FBF1F5DB4C80
:101C4000241D246847F6C076344096FAA6F6B6FA04
:101C500086F6F44005FB04F20FE0D64CB4FBF1F538
:101C6000D24C241D246847F6C076344096FAA6F676
:101C7000B6FA86F6F44005FB04F2CC4C241D246829
:101C800004F440344FF4403595FAA5F5B5FA85F5DE
:101C9000EC40641C6300B2FBF3F001E0C54800BFF8
:101CA00000BF70BD70B504460D460026C3480068ED
:101CB00000F00F00A84209D2C0490D700846006824
:101CC00000F00F00A84201D0012070BD207800F084
:101CD0000200022809D1B5480830006820F0F00061
:101CE000A1680843B14908310860207800F001007C
:101CF00000287AD06068012806D1AC480068C0F39B
:101D00004040A8B90120E0E76068022802D060687E
:101D1000032806D1A5480068C0F3406040B90120FF
:101D2000D3E7A2480068C0F3400008B90120CCE71F
:101D30009E480830006820F00300616808439B4912
:101D40000831086001F0DAFF06466068012811D109
:101D500008E001F0D3FF801B41F28831884201D9AD
:101D60000320B2E791480830006800F00C00042816
:101D7000EFD13AE06068022811D108E001F0BEFF1F
:101D8000801B41F28831884201D903209DE78748B2
:101D90000830006800F00C000828EFD125E06068EA
:101DA000032811D108E001F0A9FF801B41F288311E
:101DB000884201D9032088E77C480830006800F099
:101DC0000C000C28EFD110E008E001F097FF801B19
:101DD00041F28831884201D9032076E77348083000
:101DE000006800F00C000028EFD17448006800F093
:101DF0000F00A84209D971490D700846006800F02B
:101E00000F00A84201D001205FE7207800F0040015
:101E1000042809D165480830006820F4E050E168E2
:101E20000843624908310860207800F0080008285B
:101E30000AD15E480830006820F46040216940EA19
:101E4000C1005A4908310860FFF7D7FE57490831E9
:101E5000096801F0F001F02292FAA2F2B2FA82F2DD
:101E6000D140574A515CC840564908600F20FEF7E0
:101E7000AEF9002029E770B586B006460C46154637
:101E800056BB00BF0020009048483030006840F04A
:101E900001004649303108600846006800F0010042
:101EA000009000BF00BF881501900220029003201F
:101EB000049000200390059001A94348FEF72AFCF6
:101EC0003A480830006820F0EC6044EA0501084315
:101ED00036490831086029E000BF002000903348EF
:101EE0003030006840F00400304930310860084666
:101EF000006800F00400009000BF00BF481501908A
:101F0000022002900320049000200390059001A974
:101F10002E48FEF7FFFB25480830006820F0784087
:101F200044EAC501084321490831086006B070BD84
:101F300001201F49C864704700201D49C8647047CC
:101F400020480068704700B5FFF7FAFF17490831CD
:101F5000096801F4E0514FF4E05292FAA2F2B2FAA9
:101F600082F2D1401A4A515CC84000BD00B5FFF76B
:101F7000E7FF0E490831096801F460414FF46042FF
:101F800092FAA2F2B2FA82F2D140114A515CC840F0
:101F900000BD0F2101600549096801F48021B1F5F8
:101FA000802F17D14FF4A021416020E0003802407B
:101FB000000047420024F40000127A00003C024076
:101FC000A05B00087C0000200000024000080240E6
:101FD000B05B00085A49096801F48031B1F5803FCF
:101FE00003D14FF48031416001E000214160544948
:101FF000096801F0010111B10121C16001E0002176
:10200000C1604F49096801F0F801F82292FAA2F282
:10201000B2FA82F2D140016149497031096801F098
:102020000401042902D1052181600AE0444970318C
:10203000096801F0010111B10121816001E0002175
:1020400081603F497431096801F0010111B101213A
:10205000416101E0002141613949096801F0807165
:10206000B1F1807F02D10221816101E00121816112
:102070003349091D096801F48002C2613049091D14
:10208000096801F03F0202622D49091D096847F6FF
:10209000C072114092FAA2F2B2FA82F2D1404162C9
:1020A0002749091D096801F4403101F580314900D3
:1020B0004FF4403292FAA2F2B2FA82F2D140816237
:1020C0001F49091D096801F070614FF0706292FAB2
:1020D000A2F2B2FA82F2D140C16270470F220260CE
:1020E000174A0832126802F003024260144A0832AA
:1020F000126802F0F0028260114A0832126802F49B
:10210000E052C2600E4A0832126802F46042D208FD
:1021100002610C4A126802F00F020A6070477047B1
:1021200010B507480C30006800F08000802805D109
:10213000FFF7F5FF802002490E31087010BD000046
:1021400000380240003C02400146002200BF501C03
:102150000246FA4B984201D903207047086900F003
:1021600000400028F3D00022086940F00100086117
:1021700000BF501C0246F14B984201D90320ECE706
:10218000086900F001000028F3D100BFE5E70FB4B3
:1021900010B504460898012816D1A06B20F48030B1
:1021A000A063E068E6490840E060E06820F4401081
:1021B000E0600F98012803D1E06840F48010E060EF
:1021C0002046FFF7C1FF09E0E06840F04000E06012
:1021D0002046FFF7B9FF4FF48030A063069801282E
:1021E00007D1A06840F00600A060A06840F0200081
:1021F000A060002010BC5DF814FB0146886840F028
:1022000001008860002070470146886820F00100C6
:1022100088600020704770B504460D46E06820F0E5
:10222000C040E060012D04D1E06840F00050E06063
:1022300004E01DB9E06840F08040E060322001F029
:1022400060FD002070BD014600221020086100BF23
:10225000501C0246B94B984201D9032070470869C7
:1022600000F010001028F3D00020F7E710B5024668
:102270000023202040EA8110106100BF581C034653
:10228000AE4CA04201D9032010BD106900F020001F
:102290002028F3D00020F7E70246D2F800080843D0
:1022A000C2F80008002070470FB430B5044600257E
:1022B0000E9820B9A06B40F40010A06303E0A06B5F
:1022C00040F40020A0630020C4F8000ED4F80008F9
:1022D000C4F80008099801280BD1069820B90021FC
:1022E0002046FFF7D9FF08E001212046FFF7D4FF81
:1022F00003E003212046FFF7CFFF10212046FFF720
:10230000B5FF2046FFF79FFF00214FF40160015108
:10231000001D0151491E001D01510021001D0151E8
:10232000002524E004F5106000EB4510006800F083
:102330000040B0F1004F07D14FF0904104F510601C
:1023400000EB4510016005E0002104F5106000EB92
:1023500045100160002104F5106000EB451001619B
:10236000FF2104F5106000EB451081606D1C04989E
:10237000A842D7D8002524E004F5306000EB4510D2
:10238000006800F00040B0F1004F07D14FF09041DD
:1023900004F5306000EB4510016005E0002104F514
:1023A000306000EB45100160002104F5306000EB67
:1023B00045100161FF2104F5306000EB451081609C
:1023C0006D1C0498A842D7D84FF40160005920F43E
:1023D00080714FF401600151079801280BD15949D0
:1023E0004FF4036001510059574908434FF403610A
:1023F0000851084605590020A0616FF080406061D7
:10240000079818B9A06940F01000A061A0694F4971
:102410000843A0610A9818B1A06940F00800A061C3
:102420000E98012803D1A06949490843A061002002
:1024300030BC5DF814FB0146002040F608025258FB
:1024400002F0060202B917E040F60802525802F004
:102450000602022A06D040F60802525802F006028E
:10246000062A01D1032007E040F60802525802F084
:102470000602042A00D10220704710B502464878AF
:1024800001282BD140F61C0080580C780123A34072
:102490009BB2184340F61C039850087802F510636D
:1024A00003EB4010006800F40040E8BB0889C0F36B
:1024B0000A00CB7840EA83400B7840EA835040F032
:1024C000805040F4004002F5106404EB43131B6895
:1024D00018430B7804EB431318602CE040F61C0003
:1024E00080580C780123A3401A4C04EA0343184394
:1024F00040F61C039850087802F5306303EB401057
:10250000006800F4004078B90889C0F30A00CB786D
:1025100040EA834040F0805040F400400B7802F5E0
:10252000306404EB431300E005E01B6818430B78AC
:1025300004EB43131860002010BD0000400D0300A1
:10254000BFFFBDFF000180000300010000383C8098
:10255000040000400000FFFF10B502464878012843
:102560003DD1087802F5106303EB4010006800F4D9
:102570000040B0B90889C0F30A00CB7840EA834034
:102580000B7840EA835040F0805040F4004002F560
:10259000106404EB43131B6818430B7804EB4313DC
:1025A00018600889C0F30A00CB7840EA83400B78B2
:1025B00040EA835040F0805040F40040FC4B1B68E0
:1025C0001843FB4B186040F63C0080580C78012300
:1025D000A3409BB2184340F63C03985044E008786F
:1025E00002F5306303EB4010006800F4004070BB5C
:1025F0000889C0F30A00CB7840EA83400B7840EAB0
:10260000835040F40043087802F5306404EB401036
:10261000006818430B7804EB431318602046E44B22
:1026200018600878234603EB4010E14B18600889D6
:10263000C0F30A00CB7840EA83400B7840EA83502D
:1026400040F40040DA4B1B681843D94B186040F641
:102650003C0080580C780123A340D64C04EA034385
:10266000184340F63C039850002010BD70B5044656
:102670000D4600266878012839D1287804F51061C4
:1026800001EB4010006820F40042287801EB401074
:1026900002604FF00062287801EB40100260D20027
:1026A000287801EB4010026000BF701C0646C2494A
:1026B000884201D9032070BD287804F5106101EB30
:1026C0004010806800F08040B0F1804FEDD01021C4
:1026D0002046FFF7CBFD40F61C0000592A78012167
:1026E000914089B2884340F61C0108513DE02878AA
:1026F00004F5306101EB4010006820F400422878B6
:1027000001EB401002604FF00062287801EB4010AE
:102710000260D200287801EB4010026000BF701CFC
:102720000646A549884201D90320C4E7287804F564
:10273000306101EB4010806800F010001028EED0EE
:1027400040F60400005940F4806140F60400015155
:1027500040F61C0000592A7801219140954A02EA6E
:102760000141884340F61C0108510020A3E770B5E1
:1027700004460D4600266878012839D1287804F5EA
:10278000106101EB4010006820F40042287801EB52
:10279000401002604FF00062287801EB40100260A8
:1027A000D200287801EB4010026000BF701C064682
:1027B0008149884201D9032070BD287804F5106151
:1027C00001EB4010806800F08040B0F1804FEDD008
:1027D00010212046FFF74AFD40F61C0000592A78D8
:1027E0000121914089B2884340F61C0108513DE027
:1027F000287804F5306101EB4010006820F40042B5
:10280000287801EB401002604FF00062287801EB5D
:1028100040100260D200287801EB4010026000BF37
:10282000701C06466449884201D90320C4E7287811
:1028300004F5306101EB4010806800F010001028B2
:10284000EED040F60400005940F4806140F60400E8
:10285000015140F61C0000592A7801219140554A47
:1028600002EA0141884340F61C0108510020A3E719
:10287000F0B50446059E002700257EB9D81C8708C0
:1028800000BF09E0D1F800C004F5805000EB023031
:10289000C0F800C06D1C091DBD42F3D30020F0BD7F
:1028A000F8B505460C4616460027607801287DD10C
:1028B000606918BB207805F5106101EB40100069D4
:1028C0003E490840217805F5106202EB411108618C
:1028D0002078114601EB4010006940F40022207876
:1028E00001EB40100261207801EB40100069C20C3E
:1028F000D204207801EB401002614FE0207805F50A
:10290000106101EB40100069C20CD204207801EB89
:1029100040100261207801EB40100069274908400F
:10292000217805F5106202EB41110861A168606928
:102930000844401EB0FBF1F02049C94301EAC04001
:10294000217802EB411109690843217802EB41111A
:1029500008612078114601EB401001696069C0F3FD
:1029600012000143207802EB40100161E078012859
:1029700014D12078114601EB4010006920F0C042CC
:10298000207801EB40100261207801EB40100069D3
:1029900040F00052207801EB40100261012E12D16C
:1029A000207805F5106101EB401009E054E00000CB
:1029B000040000200000FFFF400D0300FFFF07E0C0
:1029C000226942610EE0E07801280BD0606948B1CD
:1029D00040F634004059227801219140084340F6E6
:1029E00034014851E07801281ED140F608004059D2
:1029F00000F4807060B9207805F5106101EB40109B
:102A0000006840F00052207801EB401002600BE0BB
:102A1000207805F5106101EB4010006840F080520D
:102A2000207801EB40100260207805F5106101EB81
:102A30004010006840F00442207801EB4010026032
:102A4000E078012807D10096A08A83B22278284630
:102A5000E168FFF70DFF8FE0207805F5306101EBAD
:102A600040100069C20CD204207801EB40100261D2
:102A7000207801EB40100169F7480140207805F506
:102A8000306202EB401001616069C0B920781146E4
:102A900001EB40100069A168C1F3120108432178DD
:102AA00002EB411108612078114601EB40100069EA
:102AB00040F40022207801EB4010026125E0A1687B
:102AC00060690844401EB0FBF1F087B2207805F53C
:102AD000306101EB40100069DF49C94301EAC74199
:102AE0000843217805F5306202EB41110861207836
:102AF000114601EB40100169A0687843C0F3120051
:102B00000843217802EB41110861012E06D120789B
:102B100005F5306101EB4010E2684261E078012880
:102B20001ED140F60800405900F4807060B920784A
:102B300005F5306101EB4010006840F0005220784C
:102B400001EB401002600BE0207805F5306101EBED
:102B50004010006840F08052207801EB4010026085
:102B6000207805F5306101EB4010006840F0044228
:102B7000207801EB401002600020F8BD30B503461C
:102B80004878012871D1486918BB087803F51064AA
:102B900004EB40100069B04C20400C7803F5106540
:102BA00005EB4414206108782C4604EB40100069C2
:102BB00040F40025087804EB40100561087804EB28
:102BC00040100069C50CED04087804EB4010056165
:102BD00037E0087803F5106404EB40100069C50C79
:102BE000ED04087804EB40100561087804EB401010
:102BF0000069994C20400C7803F5106505EB4414EE
:102C000020618C684869A04201D9886848610878C9
:102C100003F5106404EB4010006940F400250878C7
:102C200004EB40100561087804EB40100469486922
:102C3000C0F312000443087803F5106505EB40105B
:102C40000461087803F5106404EB4010006840F05C
:102C50000445087804EB40100560012A06D1087885
:102C600004EB40100D69456159E00DE0486900280A
:102C700055D040F63400C0580D780124AC402043B4
:102C800040F63404E0504AE0087803F5306404EB81
:102C900040100069C50CED04087804EB4010056194
:102CA000087804EB401004696B480440087803F589
:102CB000306505EB40100461486908B188684861D7
:102CC000087803F5306404EB4010006940F40025F7
:102CD000087804EB40100561087804EB40100069A7
:102CE0008C68C4F3120420430C7803F5306505EBBF
:102CF00044142061012A06D1087803F5306404EBFE
:102D00004010CD684561087803F5306404EB40104D
:102D1000006840F00445087804EB4010056000208E
:102D200030BD30B503460024D01C850800BF05E047
:102D30004FF48050C0580860641C091DAC42F7D3A2
:102D4000084630BD10B50246487801281FD10878E2
:102D500002F5106303EB4010006800F0004048B932
:102D6000087803EB4010006820F08044087803EBFB
:102D700040100460087802F5106303EB401000680F
:102D800040F40014087803EB401004601EE008785B
:102D900002F5306303EB4010006800F0004048B9D2
:102DA000087803EB4010006820F08044087803EBBB
:102DB00040100460087802F5306303EB40100068AF
:102DC00040F40014087803EB40100460002010BDAC
:102DD00010B50246487801281ED1087802F5106324
:102DE00003EB4010006820F40014087803EB401057
:102DF0000460C878032802D0C87802282AD108784D
:102E000002F5106303EB4010006840F0805408782E
:102E100003EB401004601DE0087802F5306303EB1B
:102E20004010006820F40014087803EB40100460A0
:102E3000C878032802D0C87802280BD1087802F598
:102E4000306303EB4010006840F08054087803EBD7
:102E500040100460002010BDFFFF07E030B50446BD
:102E600000250BE0FF2104F5106000EB45108160A8
:102E700004F5306000EB451081606D1C0F2DF1D31F
:102E80004FF0FF3140F61800015100214FF401606E
:102E90000151001D015140F61C0001512046FFF771
:102EA000D2F910212046FFF7E1F9002030BD02469B
:102EB000D2F8000820F4FE60C2F80008D2F800083A
:102EC0004FF4FE6303EA01131843C2F80008002020
:102ED000704710B5044640F60400005920F0020186
:102EE00040F604000151032000F00BFF002010BD4C
:102EF00010B5044640F60400005940F0020140F6C7
:102F000004000151032000F0FCFE002010BD01462A
:102F1000002048698A6910407047014640F6180051
:102F20004258001D40580240100C7047014640F6C0
:102F300018004258001D4058024090B270470246A7
:102F400002F5306303EB4113986840F614039B5875
:102F50001840704730B502464FF40165AB5840F653
:102F60003405AC5824FA01F505F0010543EAC51310
:102F700002F5106505EB4115AD6805EA030030BDAB
:102F800042690A43426170470146486900F0010006
:102F9000704701464FF410604058C20AD2024FF405
:102FA0001060425040F60800405800F00600042827
:102FB00007D14FF41060405840F003024FF4106006
:102FC000425040F60400405840F4807240F604003D
:102FD00042500020704710B503460024C3F8104B40
:102FE000D3F8100B40F40024C3F8104BD3F8100BA7
:102FF00040F01804C3F8104BD3F8100B40F0C04455
:10300000C3F8104B012906D1C3F8142B4FF08024CC
:103010004FF43060C450002010BD08B50246D2F80D
:1030200040040090009820F02E000090009800F4DA
:10303000805030B9012904D1009840F48050C2F882
:103040004004009800F48050B0F5805F05D121B9AC
:10305000009820F48050C2F84004002008BD0FB44E
:1030600070B504460020C4F8000EA06B20F4802048
:10307000A063A06B20F40020A063A06B40F40010BC
:10308000A0630798032809D1B4F1A04F06D0D4F863
:10309000000440F00400C4F8000405E0D4F8000483
:1030A00020F00400C4F8000410212046FFF7DEF8E9
:1030B0002046FFF7C8F800250DE04FF0FF3104F57A
:1030C000A06000EB45108160002104F5A06000EBDA
:1030D0004510C1606D1C0698A842EED8012120461B
:1030E000FFF79BFFC82000F00CFE0020A061401EEF
:1030F0006061B4F1A04F07D180206062FB48A062FC
:10310000FB48C4F8000107E04FF400706062F94822
:10311000A062F948C4F80001089818B9A06940F005
:103120001000A061A069F5490843A061002070BCAF
:103130005DF814FB0246D2F8000420F00300C2F848
:103140000004D2F8000401F003031843C2F800049D
:10315000012905D14BF6803340F20440835006E04C
:10316000022904D141F2707340F2044083500020E0
:10317000704738B50446D4F840040090009820F019
:103180002E000090009840F48070C4F840040A209B
:1031900000F0B7FD009820F48070C4F840040020CF
:1031A00038BD08B50146D1F8400400900098C0F33E
:1031B000414008BD01464FF48160405880B27047DD
:1031C0002DE9F0410446DDE90757069E4FF0FF3C2C
:1031D00004F5A06000EB4110C0F808C035B1012D26
:1031E00048D0022D03D0032D5DD12AE000BF40F26C
:1031F0009D4C04F5A06000EB4110C0F80CC002F03B
:10320000800068B104F5A06000EB4110C06840F494
:10321000807C04F5A06000EB4110C0F80CC00FE00A
:10322000B4F1A04F0CD004F5A06000EB4110C068D1
:1032300040F0600C04F5A06000EB4110C0F80CC039
:1032400031E040F29D6C04F5A06000EB4110C0F845
:103250000CC002F0800060B104F5A06000EB4110EA
:10326000C06840F4807C04F5A06000EB4110C0F819
:103270000CC018E040F2252C04F5A06000EB4110D2
:10328000C0F80CC002F0800060B104F5A06000EB53
:103290004110C06840F4C07C04F5A06000EB411010
:1032A000C0F80CC000BF00BF4FF4836000594FF05E
:1032B000010C0CFA01FC40EA0C00C4F81804A069E7
:1032C00040F00070A0614FF0FE5000EA83504FF4D0
:1032D000F04C0CEAC22C40EA0C00C2F3C01C4FF4C4
:1032E000004808EACC3C40EA0C00022E02D14FF024
:1032F000010C01E04FF0000C4FF4003808EA4C4C90
:1033000040EA0C004FF4402C0CEA854C40EA0C00DB
:10331000C7F30A0C40EA0C0004F5A06C0CEB411C4E
:10332000CCF80000032D0CD104F5A06000EB411097
:10333000006840F0005C04F5A06000EB4110C0F8AC
:1033400000C00020BDE8F08130B502460124002312
:103350006B4800EAC44040F0004502F5A06000EB75
:103360004110056102F5A06000EB4110036823F0F5
:10337000804343F0004302F5A06000EB411003607E
:10338000002030BD2DE9F84F05460C4616464FF09B
:10339000000BDA4600274FF48078B946B5F1A04F0C
:1033A0001CD02079D0B94EB96079012806D1617856
:1033B0002846FFF7C9FF0020BDE8F88F012E0DD188
:1033C000607805F5A06101EB4010C06820F0600254
:1033D000607801EB4010C26000206071206968B124
:1033E000218920690844401EB0FBF1F087B24745AF
:1033F00005DD474620897843206100E00127E07819
:1034000010B12089784320612069C0F312003C4943
:1034100001EAC7410843A17A4FF0C04202EA417174
:103420000843617805F5A06202EB4111086136B1ED
:10343000607805F5A06101EB4010E26842614FF44D
:103440008160405900F0010080F0010B607805F5C3
:10345000A06101EB4010006820F00052607801EBA1
:1034600040100260607801EB4010006840EA4B7247
:10347000607801EB40100260607801EB4010D0F8FA
:10348000009029F0804949F00049607801EB401034
:10349000C0F80090B6BBE078A0BB206990B3E0799B
:1034A00030B1012813D0022803D003282BD10DE01E
:1034B00000BF2069C01CC0F38F0AE86A80B2504583
:1034C00003D2A86940F02000A8611DE000BF206978
:1034D000C01CC0F38F0A4FF48260405980B250453F
:1034E00003D2A86940F08060A8610DE08000600010
:1034F000E0004000000200010003E000080020A3FB
:103500000000F81F0AE000BF00BF00200090208AE2
:1035100083B262782846E168FFF7AAF900204BE7FA
:10352000014640F21440405880B2704710B5024640
:10353000002302F5A06000EB41100068C0F3814059
:1035400040B102F5A06000EB41100068C0F381407B
:10355000022846D102F5A06000EB4110006840F05F
:10356000804402F5A06000EB41100460D06A00F4D2
:103570007F0048BB02F5A06000EB4110006820F01E
:10358000004402F5A06000EB4110046002F5A06069
:1035900000EB4110006840F0004402F5A06000EB31
:1035A0004110046000BF581C0346B0F57A7F00D973
:1035B00009E002F5A06000EB4110006800F0004057
:1035C000B0F1004FEFD053E002F5A06000EB4110E6
:1035D000006840F0004402F5A06000EB4110046078
:1035E00046E002F5A06000EB4110006840F0804426
:1035F00002F5A06000EB411004604FF48260805837
:1036000080B248BB02F5A06000EB4110006820F0DA
:10361000004402F5A06000EB4110046002F5A060D8
:1036200000EB4110006840F0004402F5A06000EBA0
:103630004110046000BF581C0346B0F57A7F00D9E2
:1036400009E002F5A06000EB4110006800F00040C6
:10365000B0F1004FEFD00BE002F5A06000EB41109D
:10366000006840F0004402F5A06000EB41100460E7
:10367000002010BDF0B5054600272846FEF7C4FD22
:1036800010212846FEF7F2FD2846FEF7DCFD002457
:1036900011E005F5A06000EB4410066846F0804696
:1036A00026F0004626F4004605F5A06000EB441025
:1036B0000660601CC4B20F2CEBDD002423E005F58E
:1036C000A06000EB4410066846F0804646F00046D5
:1036D00026F4004605F5A06000EB4410066000BF2C
:1036E000781C0746B0F57A7F00D909E005F5A0609F
:1036F00000EB4410006800F00040B0F1004FEFD044
:1037000000BF601CC4B20F2CD9DD4FF0FF3140F276
:1037100014404151084668612846FEF76EFD0020BE
:10372000F0BD000000B593B000BF00200190284814
:10373000006840F08050264908600846006800F0A4
:103740008050019000BF00BF00BF002001902148C1
:10375000006840F440401F4908600846006800F4D3
:103760004040019000BF00BF012002900004039080
:10377000002005904FF48001099102200890082153
:103780000A914FF4A8710B9104210C9107210D911E
:1037900002A8FEF712F810B1012013B000BD0220FC
:1037A0000F900020109007200E900E9840F0080017
:1037B0000E904FF4805011900020129006210EA818
:1037C000FEF770FA08B10120E7E70020E5E7000006
:1037D000403802400070004001464FF40030081AA3
:1037E000C0F38F2070472DE9F04304460E4615467E
:1037F000DDE907892046FFF7EFFFC7B2002243E06B
:1038000001209040304000B93CE0B14830F817004A
:10381000012191400843AE4921F81700E0684FEAC2
:10382000420C032101FA0CF18843510008FA01F11E
:103830000843E06020684FEA420C032101FA0CF1D2
:103840008843510005FA01F108432060012D01D0A1
:10385000022D16D161680120904080B221EA00005B
:1038600003FA02F189B208436060A0684FEA420C93
:10387000032101FA0CF18843510009FA01F10843D0
:10388000A06000BF501CC2B2102AB9DBBDE8F083B3
:1038900000B502461046FFF79FFF012101FA00F034
:1038A0008C49096808438B49086000BD2DE9FC4339
:1038B00005460C4616461F46DDE909890CB9BDE8E8
:1038C000FC832846FFF7E4FF3B4632462146284664
:1038D000CDE90089FFF787FF00BFF0E72DE9FC473E
:1038E00005460E4617469846DDE90A9A0EB9BDE828
:1038F000FC872846FFF7CCFF00241AE00120A040F7
:10390000304000B914E0E10805F1200050F8210032
:103910006107CA0E0F21914088436107C90E0AFA58
:1039200001F10843E20805F1200141F8220000BF3F
:10393000641C102CE2D33B46022231462846CDE9D6
:103940000089FFF750FF00BFD1E770B503460C4672
:103950001846FFF741FFC5B2002214E00120904055
:10396000204070B1186856000321B1400843186028
:10397000574830F81500012191408843544921F8F7
:103980001500501CC2B2102AE8DB70BD30B50246EB
:1039900000200BE0012383400B402BB1136845004E
:1039A0000324AC40A3431360431CD8B21028F1DBBE
:1039B00030BD30B5024600200FE0012383400B40AC
:1039C0004BB1136845000324AC40A34345000124D8
:1039D000AC4023431360431CD8B21028EDDB30BD4C
:1039E00030B5024600200BE0012383400B402BB191
:1039F000136845000324AC4023431360431CD8B232
:103A00001028F1DB30BD30B50246002011E0012363
:103A100083400B4003B90AE0136845000324AC401F
:103A2000A34345000224AC402343136000BF431C62
:103A3000D8B21028EBDB30BD70B50346002011E092
:103A4000012484400C4004B90AE0DC6846000325E8
:103A5000B540AC43450002FA05F52C43DC6000BFDD
:103A6000441CE0B21028EBDB70BD41F48032C2612F
:103A7000C161C261C369C36970470146002002E0A9
:103A8000421C90B249100129FADC704700B5024689
:103A90001046FFF7A1FE012181400E4800688843CF
:103AA0000C49086000BD00B502461046FFF794FEC1
:103AB000074931F8100000BD00B502461046FFF777
:103AC0008BFE034931F81000C04380B200BD0000F6
:103AD000D0010020303802409748006820F0807004
:103AE000954A10601046006840F08070106093485E
:103AF000006820F00100914A10601046006840F014
:103B000001001060002050601046416800BF00BFF7
:103B10008A484068401A70472DE9F04705460E462E
:103B200017469846DDF8209085480078052802DB86
:103B30000020BDE8F087142001F0FCFF04460CB91A
:103B40000020F6E765606068A060207866F30000FA
:103B50002070207867F341002070C4F80C80C4F80E
:103B60001090774801780078401C754A1070101D3D
:103B700040F821402046DCE72DE9F04106460024CC
:103B800008E06F48001D50F82400B04200D105E065
:103B9000601CC4B26A480078A042F2DC00BF6848EA
:103BA0000078A04201D1BDE8F0816548001D50F8C1
:103BB000247000BFEFF31080054672B608E060483D
:103BC000001D611C50F8211040F82410601CC4B284
:103BD0005B480078401EA042F1DC59480078401E46
:103BE00057490870384601F07DFF05B962B600BF3D
:103BF000D9E7017821F0020101707047017821F0C6
:103C00000201891C0170704741688160704709B1E9
:103C1000012200E00022037862F300030370704782
:103C200041607047704710B546480068401C4549E0
:103C300008604548006820B143480068401E42497A
:103C40000860002453E03E48001D50F8240000287E
:103C50004BD03B48001D50F824000078C0F34000D2
:103C6000F0B33748001D50F82400806850B1344844
:103C7000001D50F824008068401E3149091D51F88C
:103C8000241088602E48001D50F82400806838BB3E
:103C90002B4B1B1D53F824301969294B1B1D53F85E
:103CA000240053F82430DA6890472548001D50F866
:103CB000240041682248001D50F8240081602048FB
:103CC000001D50F82400007800F0010040B91C48A5
:103CD000001D50F82400007820F00201184800E090
:103CE00003E0001D50F824000170601CC4B21448A9
:103CF0000078A042A7DCFFF795FF10BD11480068CF
:103D0000704700B5014600BFEFF3058048B9FFF7E3
:103D1000F5FF024600BFFFF7F1FF801A8842FAD391
:103D200009E006E04FF0E020006900F4803000B1C7
:103D3000491E0029F6D100BDFCED00E0001000E0B6
:103D4000EC0100200C000020080000201CB503201E
:103D500000210B460122CDE900104FF470411E48AE
:103D6000FFF7A4FD4FF070401B49183108601CBDDF
:103D70001CB50020022103460246CDE900100121B6
:103D80001648FFF793FD1CBD1448006900F00100C0
:103D900080F0010030B91248007830B90120104994
:103DA0000870704700200E4908700020F9E70B48A2
:103DB000006900F0010080F0010038B10848007887
:103DC00038B10020064908700120704701200449DD
:103DD00008700020F9E70000000C024000000240DB
:103DE00010000020002070471CB50A20032100238A
:103DF0001A46CDE900104FF4D0511C48FFF76EFD74
:103E00000A20032101231A46CDE900109902174820
:103E1000FFF764FD00BF1648006840F080001449B9
:103E2000086000BF0020019011481030006840F485
:103E300080400F49103108600846006800F4804057
:103E4000019000BF00BF00BF002201214320FCF70A
:103E5000C1FA4320FCF7FCFA00201CBD012070478A
:103E6000704710B50348FCF752FF10BD0000024038
:103E7000343802407808002010B504460CB1022CFA
:103E800002D1114800F0A7FE002010BD10B5044675
:103E90000CB1022C02D10C4800F0A4FE002010BD91
:103EA00001460A4850F82100704700B503461846FD
:103EB000FFF7F6FF02462AB192F8FC01032801D170
:103EC000002000BD0120FCE70402002014000020B7
:103ED0000146002001B9B74870470146002001B9EA
:103EE000B548704710B504460CB1022C18D1002219
:103EF000B249B34800F026FEB249B14800F057FE7F
:103F0000B149AF4801F082FCB04A4FF48071A94832
:103F100000F0AAF9AE4A4FF48071A74800F0A4F966
:103F2000002010BD2DE9F04104460CB1022C19D13E
:103F30000020FFF7B5FF0546D5F81872D7F8140230
:103F400078B94FF48072A3499B4800F067FA86B2B3
:103F50003EB132469F49284601F05FFC284601F0F9
:103F60006DFC00BFBDE8F08173B504462046FFF745
:103F7000B4FF0546012201A900F0BCF920B120469A
:103F8000FFF7D0FF01207CBD0020FCE72DE9F041C8
:103F900005460C46204601F02DFD07462846FFF752
:103FA0009CFF80463A46214600F0A4F980B2061EE6
:103FB00002DD2846FFF7B6FF3046BDE8F0812DE967
:103FC000F04104460D4616462046FFF786FF804620
:103FD0003246294600F08EF980B2071E02DD2046E7
:103FE000FFF7A0FF3846BDE8F08170B504460D46E6
:103FF0002046FFF76DFF06460122294600F00EFA23
:1040000008B1012070BD0020FCE72DE9F041044615
:104010000D4616462046FFF75BFF07463246294607
:1040200000F0BFFA80B2BDE8F0812DE9F04104460E
:104030000D4616462046FFF74BFF074632462946F7
:1040400000F0ECF980B2BDE8F08110B5024602B98B
:104050006148D0B10B680468A3420BD14B798479D5
:10406000A34207D18B794479A34203D10B79047918
:10407000A3420AD003680B6083794B7143798B713B
:1040800003790B710123CB7101E00023CB7110BDCB
:1040900070B504460D461646207820B932462946AA
:1040A000444800F027F970BD0246122008804B48B2
:1040B00070470246042008804948704770B505469D
:1040C0000C462DB92246474947A001F009FA04E001
:1040D000224644494DA001F003FA424870BD70B534
:1040E00005460C4622463F4951A001F0F9F93D48EA
:1040F00070BD30B50B46002100BF16E00A24B4EBBA
:10410000107F05D9302404EB107403F8114005E04A
:10411000412404EB10740A3C03F81140000100250F
:104120004C00641C1D554C1CE1B29142E6DB30BDD5
:1041300070B544480468001D0568001D06683444D5
:1041400054B1082240492046FFF7D3FF04223E49DC
:1041500010312846FFF7CDFF70BD70B505460C46FF
:104160001A202080FFF7E4FF3748801E70BD70B52D
:1041700005460C462DB922461A4934A001F0B0F983
:1041800004E02246174931A001F0AAF9154870BD94
:1041900070B505460C462DB9224612492EA001F0F5
:1041A0009FF904E022460F492BA001F099F90D4830
:1041B00070BD0000280500204005002020000020E0
:1041C00004020020900000209401002058050020E7
:1041D0005806002058070020B40100203C000020B1
:1041E000500000202804002053544D3332205669DB
:1041F000727475616C20436F6D506F727420696EBC
:10420000204853204D6F64650000000053544D3327
:1042100032205669727475616C20436F6D506F72F5
:104220007420696E204653204D6F646500000000C5
:1042300053544D6963726F656C656374726F6E6918
:1042400063730000107AFF1F560000205643502071
:10425000436F6E666967000056435020496E74656F
:10426000726661636500000070B504460D4616462F
:104270001821204601F0B3FB2560E6600A20607437
:10428000E06868B9284601F055FCE060E06818B9BC
:1042900000202060012070BD207C40F002002074CE
:1042A000207C40F0010020740020F4E710B50446A3
:1042B00004B910BD207C00F0020010B1E06801F0EC
:1042C00011FC00202074206000BFF2E730B50146E9
:1042D00009B9002030BD4A688B689A4200D10C6849
:1042E000934200D99C1A9A4202D9D51A0868441BF5
:1042F000601EEFE72DE9F0470446894615464FF06A
:104300000008CA4604B115B90020BDE8F087D4E919
:104310000010884201D3002060602046FFF7D6FFDE
:104320000746AF4203D20FB90020EEE73D46D4E97D
:104330000001461AAE4200D92E466268E16888182C
:104340003246494601F032FBB04460683044606058
:10435000AD1B55B1002060606368E268D0180AEBBD
:1043600008012A4601F022FB6560D4E9001088426A
:1043700001D30020606008EB0500C6E72DE9F0439B
:104380000446884615464FF00009474604B115B962
:104390000020BDE8F083D4E90010884201D300205A
:1043A00060602168A068884201D30020A060204698
:1043B000FFF78CFF0646AE4203D20EB90020E8E7B5
:1043C0003546681E07440FE0A06818B92068401EF3
:1043D000A06002E0A068401EA06017F80109D4E9BF
:1043E0000221885409F10109281EA5F10105EBD12C
:1043F0004846CEE730B503460BB9002030BD5968BA
:104400009A68914200D10024914200D98C1A8A42C4
:1044100002D9551A1868441B2046EFE72DE9F047EA
:104420000446894615464FF00008CA4604B115B93E
:104430000020BDE8F0872168A068884201D30020F1
:10444000A0602046FFF7D6FF0746AF4203D20FB960
:104450000020EEE73D46A1682068461AAE4200D92A
:104460002E46D4E9022081183246504601F09EFAC9
:10447000B044A0683044A060AD1B55B10020A060DE
:10448000D4E90232D1180AEB08002A4601F08EFA6C
:10449000A5602168A068884201D30020A06008EBD5
:1044A0000500C6E700B9704700214160816000BF88
:1044B000F9E72DE9F04104460F464FF000081CB91A
:1044C0004FF0FF30BDE8F0812046FFF793FF05462F
:1044D000A6680DE02068B04200D80026E068805D44
:1044E000B84201D14046EDE7761C6D1E08F1010887
:1044F000002DEFD1681EE5E72DE9F84F04468A4606
:1045000090464FF0000900200090D3462CB1204681
:10451000FFF770FF0646404503D24FF0FF30BDE87D
:10452000F88FA5682CE02068A84200D80025E06834
:10453000405D9BF80010884201D1012000906D1C65
:10454000761E09F101090098D0B101270FE020681B
:10455000A84200D80025E068405D1BF8071088429B
:1045600002D0781E814406E06D1C761E7F1C4745F4
:1045700001D2002EEBD100BF474501D14846CEE71E
:10458000002ED0D1701ECAE770B505460C462046F5
:1045900001F030FA0646324621462846FFF7AAFEC9
:1045A00070BD2DE9F84306460D461746002416B99E
:1045B0000020BDE8F8833046FFF788FE814630468C
:1045C000FFF718FF8046B8F1000F0AD0717C304623
:1045D000FFF76FFF002806DAB9F1000F03D0B845E6
:1045E00001D20020E5E70FE0012269463046FFF7DF
:1045F00015FF00B90BE09DF800002855285D717C7F
:10460000884200D103E0641C781EA042ECD800BFB1
:10461000781EA04202D10020285503E00021601C32
:10462000044629542046C4E770B503460C46154697
:1046300000220BB9002070BD5E68996805E0491C36
:10464000521C1868884200D80021A24201D28E4232
:10465000F5D1A24204D1D868405C28700120EAE775
:104660000020E8E7FFF75EF8FBF7C3FDFFF76EFBFE
:10467000FFF732FAFFF7B6FB0020FFF733FC01200B
:10468000FFF730FC0020FFF7F7FB0120FFF7F4FBFA
:1046900031E00220FFF746FC0020FFF706FC20B9BE
:1046A0004FF480501449086003E04FF080501249E5
:1046B000086012490020FFF7C8FC1048C07918B103
:1046C0000FA10020FFF762FC14490020FFF78DFCCA
:1046D00020B1124801780020FFF746FC0120FFF7C7
:1046E000E4FB1E220E490120FFF78FFC18B10C4994
:1046F0000120FFF74BFCCCE7180C024070000020B3
:104700005553422046532073657474696E67732055
:104710006368616E676564210A000000780000200C
:1047200058080020704700BFFEE700BFFEE700BF4B
:10473000FEE700BFFEE7704770477047704710B54F
:10474000FFF771FA10BD00003F48006840F47000A8
:104750003D4908603D48006840F001003B49086061
:1047600000203A4908310860384800683849084054
:10477000364908603748091D0860081F006820F4A2
:104780008020091F0860002030490C3108604FF07C
:1047900000602D4980390860704770B50020002204
:1047A000022300240221294D08352D6805F00C0054
:1047B00020B1042806D0082834D107E0264D274E22
:1047C000356033E0264D254E35602FE01F4D2D1D01
:1047D0002D68C5F380541D4D2D1D2D6805F03F013A
:1047E00054B11F4DB5FBF1F5184E361D3668C6F3B2
:1047F000881605FB06F209E0174DB5FBF1F5134EDF
:10480000361D3668C6F3881605FB06F20F4D2D1DC2
:104810002D68C5F301456D1C6B00B2FBF3F50F4E1F
:10482000356003E00C4D0D4E356000BF00BF074DF5
:1048300008352D68C5F303150A4E705D074D2D68C8
:10484000C540064E356070BD88ED00E0003802407E
:10485000FFFFF6FE103000240024F4007C0000204E
:1048600000127A00A05B000810B504462068B0F181
:10487000A04F01D1FFF7B8FA10BD0168B1F1A04F08
:104880000DD1AE49096821F08001AC4A1160AB49F5
:104890001031096821F48041A84A10321160704734
:1048A00010B5044604F56F71D4F8EC0300F0C6F9B6
:1048B00010BD70B504460D46C5EBC50304F5FC718B
:1048C00001EB8301CA682946D4F8EC0300F0EDF946
:1048D00070BD70B504460D46C5EBC50304F1380143
:1048E00001EB8301CA682946D4F8EC0300F020FAF2
:1048F00070BD10B50446D4F8EC0300F0BDFA10BD4D
:1049000070B504460125E06810B1022804D101E029
:10491000002503E0012501E0012500BF00BFD4F818
:10492000EC0300F072FA2946D4F8EC0300F08FFA99
:1049300070BD10B50446D4F8EC0300F08CFA10BD3D
:1049400010B50446D4F8EC0300F08FFA10BD70B532
:1049500004460D462946D4F8EC0300F0A1FA70BDD8
:1049600070B504460D462946D4F8EC0300F095FADC
:1049700070BD10B50446D4F8EC0300F094FA10BDF5
:1049800010B50446D4F8EC0300F090FA10BD10B551
:104990000446207800282AD14FF0A04068490860DA
:1049A00004204860002166480163402141610021E4
:1049B00001610162022181610021C1610221C160A6
:1049C0000021C1624162C0F8EC43C4F82002FCF748
:1049D00056F880215A48FCF7EAFE40220021584848
:1049E000FCF7BCFE802201215548FCF7B7FE0020F1
:1049F00010BD10B50446D4F82002FCF7FFF80020E3
:104A000010BD10B50446D4F82002FCF70AF90020C6
:104A100010BD10B50446D4F82002FCF7D2F80020EF
:104A200010BD2DE9F04104460F4615461E462B46A3
:104A300032463946D4F82002FCF7E6FC0020BDE8F7
:104A4000F08170B504460D462946D4F82002FCF7E3
:104A500021FD002070BD70B504460D462946D4F8EE
:104A60002002FCF737FE002070BD70B504460D46ED
:104A70002946D4F82002FCF7BCFD002070BD70B5BB
:104A800004460D462946D4F82002FCF7EFFD00202D
:104A900070BD10B50246D2F8203201F080008028A7
:104AA00009D101F07F00C0EBC00403F1380000EB36
:104AB0008400807810BD01F07F00C0EBC00403F5D6
:104AC000FC7000EB84008078F4E770B504460D4676
:104AD0002946D4F82002FCF77EFC002070BD2DE9A9
:104AE000F04104460D4616461F463B4632462946CF
:104AF000D4F82002FCF750FD0020BDE8F0812DE93C
:104B0000F04104460D4616461F463B4632462946AE
:104B1000D4F82002FCF708FD0020BDE8F08170B554
:104B200004460D462946D4F82002FCF729FD70BD45
:104B300010B504462046FFF7E4F810BD34380240B3
:104B40007808002070B504460D46164654B9DEA01C
:104B500000F096FFDEA000F093FFE3A000F090FFCE
:104B6000022070BDD4F8140210B10020C4F8140261
:104B70000DB1C4F81052012084F8FC0126702046C3
:104B8000FFF705FF0020ECE710B50446012084F88C
:104B9000FC012179D4F8140242682046904720464F
:104BA000FFF737FF2046FFF724FF002010BD70B548
:104BB00005460C46002614B1C5F8144209E0C2A00F
:104BC00000F05EFFC9A000F05BFFC7A000F058FF37
:104BD0000226304670BD10B504462046FFF711FF8F
:104BE000002010BD10B504462179D4F814024268A3
:104BF000204690472046FFF70CFF002010BD0146DD
:104C00000020704770B504460D460226D4F8140201
:104C100038B1D4F81402294602682046904700B9FA
:104C20000026304670BD70B504460D46D4F8140217
:104C30002946426820469047002070BD70B5044662
:104C40000D46294604F5027000F02CFC0120C4F842
:104C5000F40140F20E20005BC4F8F80194F8080259
:104C600000F01F0020B1012808D0022812D10BE06B
:104C700004F50271204600F00AFB13E004F502710E
:104C8000204600F03DFB0DE004F50271204600F0E7
:104C90005CFB07E094F8080200F080012046FFF773
:104CA000E4FE00BF00BF002070BD2DE9F0410546C5
:104CB0000E4617465EBB05F58274D5F8F40103284D
:104CC00033D1D4E90201884210D9D4E90201401A53
:104CD000A060D4E90201884201D2A06800E0E06847
:104CE00082B23946284600F055FC1EE0D5F8140281
:104CF000006940B195F8FC01032804D1D5F81402ED
:104D0000016928468847284600F050FC0DE0D5F898
:104D10001402806948B195F8FC01032805D1D5F843
:104D2000140231468269284690470020BDE8F08190
:104D30002DE9F04104460E461746002E54D104F1E9
:104D40001405D4F8F401022843D1D5E902018842C0
:104D500010D9D5E90201401AA860288982B23946E3
:104D6000204600F0F7FB00231A4619462046FFF7BD
:104D7000C6FE2EE0E9686868B0FBF1F201FB1200A4
:104D8000B8B9E9686868884213D36868D4F8F8113C
:104D900088420ED200221146204600F0DBFB0020A4
:104DA000C4F8F80100231A4619462046FFF7A7FE6B
:104DB0000FE0D4F81402C06840B194F8FC01032855
:104DC00004D1D4F81402C16820468847204600F078
:104DD000FAFB94F80002012814D12046FFF70FFFD8
:104DE000002084F800020DE0D4F81402406948B1B4
:104DF00094F8FC01032805D1D4F814023146426925
:104E0000204690470020BDE8F08110B504464023BD
:104E1000002211462046FFF704FE40214FF488701F
:104E200001514023002280212046FFF7FAFD402156
:104E30002162012084F8FC01D4F8180228B12179FC
:104E4000D4F81402426820469047002010BD024664
:104E5000117400207047014691F8FC0181F8FD01B2
:104E6000042081F8FC0100207047014691F8FD0103
:104E700081F8FC010020704710B5044694F8FC014D
:104E8000032808D1D4F81402C06920B1D4F8140260
:104E9000C16920468847002010BD024600207047A7
:104EA00002460020704701460020704710B50446B6
:104EB000012084F8FC012179D4F8140242682046CC
:104EC0009047002010BD00004552524F523A20003A
:104ED000496E76616C696420446576696365206813
:104EE000616E646C650000000A000000496E766126
:104EF0006C696420436C6173732068616E646C65D7
:104F00000000000070B504460D4680212046FFF7E2
:104F1000ACFD00212046FFF7A8FD70BD70B504462A
:104F20000D4694F8FC01022802D0032811D100E0BC
:104F300000BF688801280BD10020C4F80402D4F80F
:104F400014022946826820469047204600F02EFB36
:104F500004E029462046FFF7D5FF00BF00BF70BD23
:104F600070B504460D46688801280AD1C4F80402C9
:104F7000D4F814022946826820469047204600F063
:104F800015FB70BD70B504460D4694F8FC0102286F
:104F900002D0032811D100E000BF0120E060D4F866
:104FA000040218B1E06840F00200E060022204F15F
:104FB0000C01204600F0BDFA04E029462046FFF728
:104FC000A1FF00BF00BF70BD70B504460D46E88864
:104FD000012804D029462046FFF794FF1BE094F8EF
:104FE000FC01022802D003280FD108E00020A060B5
:104FF000012204F10801204600F09BFA0AE0012298
:10500000211D204600F095FA04E029462046FFF7CE
:1050100079FF00BF00BF70BD70B504460D46A8788B
:10502000FD49087008460078012804DD294620461D
:10503000FFF768FF5BE094F8FC01022802D0032828
:105040004FD11CE0F4480078A8B1F34800786060C4
:10505000032084F8FC01F04801782046FFF7D2FDD8
:10506000022804D129462046FFF74CFF70BD204698
:1050700000F09CFA02E0204600F098FA36E0E6489C
:10508000007870B9022084F8FC01E3480078606081
:10509000E14801782046FFF7C6FD204600F086FA79
:1050A0001EE0DD4909786068884216D021792046E3
:1050B000FFF7B9FDD84800786060D74801782046EE
:1050C000FFF7A0FD022804D129462046FFF71AFF6A
:1050D000CCE7204600F06AFA02E0204600F066FACB
:1050E00004E029462046FFF70DFF00BF00BF00BFC8
:1050F000BCE770B504460D46A888F8B9E888E8B959
:10510000A87800F07F0694F8FC01032804D1294612
:105110002046FFF7F7FE15E084F8FE613146204691
:10512000FFF7D3FC204600F041FA1EB1022084F8BC
:10513000FC0107E0012084F8FC0103E02946204639
:10514000FFF7E0FE70BDF8B504460E467088001209
:1051500008287FD2DFE800F07E040C207E7E5F6EA0
:10516000207CD4F810120A6869469047054676E01C
:10517000207C40B9D4F81402816A68468847054605
:105180000221697007E0D4F81402C16A68468847B2
:1051900005460221697062E0B078062834D2DFE863
:1051A00000F0030B131B232B207CD4F810124A6849
:1051B0006946904705462CE0207CD4F810128A6896
:1051C00069469047054624E0207CD4F81012CA684E
:1051D0006946904705461CE0207CD4F810120A6905
:1051E00069469047054614E0207CD4F810124A69BD
:1051F0006946904705460CE0207CD4F810128A6975
:1052000069469047054604E031462046FFF77AFE9E
:10521000F8BD00BF23E0207C30B9D4F81402416B04
:105220006846884705461AE031462046FFF76AFE81
:10523000EEE70FE0207C40B9D4F81402016B684619
:10524000884705460721697009E031462046FFF787
:1052500059FEDDE731462046FFF754FED8E700BF90
:10526000BDF8000088B1F08878B1F088BDF8001072
:10527000884202DDBDF8000000E0F0880090BDF833
:1052800000202946204600F054F900BFC0E770B561
:1052900005460C46002660780A2829D2DFE800F08F
:1052A0001923281E280A0528140F21462846FFF72F
:1052B0004AFF22E021462846FFF71BFF1DE021465A
:1052C0002846FFF7A9FE18E021462846FFF77CFE96
:1052D00013E021462846FFF755FE0EE021462846FA
:1052E000FFF73EFE09E021462846FFF717FE04E0DF
:1052F00021462846FFF706FE00BF00BF304670BDBE
:1053000070B504460D46002694F8FC01032814D11C
:10531000287901280CDCD4F814022946826820463A
:105320009047E88840B93EB9204600F03FF903E0D5
:1053300029462046FFF7E6FD04E029462046FFF710
:10534000E1FD00BF00BF002070BD2DE9F041054622
:105350000E464FF000083479307800F060002028C5
:1053600008D1D5F8140231468268284690470020BB
:10537000BDE8F0817078002857D001282AD0032892
:105380007CD195F8FC01022802D003281BD107E04C
:105390002CB1802C03D021462846FFF766FB17E08E
:1053A000708830B92CB1802C03D021462846FFF7F5
:1053B0005CFBD5F81402314682682846904728469F
:1053C00000F0F4F804E031462846FFF79BFD00BFEB
:1053D00000BF64E095F8FC01022802D003281DD12B
:1053E00007E02CB1802C03D021462846FFF73DFB77
:1053F00019E0708878B904F07F0048B1214628464A
:10540000FFF73DFBD5F814023146826828469047E5
:10541000284600F0CBF806E0800000203146284600
:10542000FFF770FD00BF00BF39E095F8FC010228CE
:1054300002D003282BD107E004F07F0018B12146E9
:105440002846FFF712FB27E004F08000802806D1F1
:1054500004F07F0105F1140000EB011005E004F0F9
:105460007F0105F5827000EB0110074621462846B2
:10547000FFF70FFB18B10120386002E00EE00020BA
:10548000386002223946284600F053F804E03146DD
:105490002846FFF737FD00BF00BF00E000BF00BF98
:1054A000404665E70A7802704A7842708B78CA787D
:1054B00003EB022242800B794A7903EB02228280BD
:1054C0008B79CA7903EB0222C28070470146002023
:1054D00002E0421CD0B2491C0A78002AF9D1704778
:1054E0002DE9F04104460D4617460026FCB1204642
:1054F000FFF7ECFF022101EB400038803A7830469C
:10550000711CCEB22A5403223046711CCEB22A54EA
:105510000AE014F8012B3046711CCEB22A54002246
:105520003046711CCEB22A5420780028F1D1BDE853
:10553000F08170B504460E4615460220C4F8F40109
:10554000A561E5612B46324600212046FFF7C7FAE8
:10555000002070BD70B506460C4615462B46224607
:1055600000213046FFF7BBFA002070BD70B504463D
:105570000E4615460320C4F8F4014FF4847005511B
:10558000001D05512B46324600212046FFF7B7FA91
:10559000002070BD70B506460C4615462B462246C7
:1055A00000213046FFF7ABFA002070BD10B504466D
:1055B0000420C4F8F40100231A4619462046FFF7D8
:1055C0008EFA002010BD10B504460520C4F8F40181
:1055D00000231A4619462046FFF791FA002010BD15
:1055E00070B504460D4629462046FFF798FA80B26A
:1055F00070BD00002DE9F04104460F460026207CD6
:1056000070B94FF40073022281212046FFF709FA96
:105610004FF40073022201212046FFF702FA0BE04B
:105620004023022281212046FFF7FBF9402302227A
:1056300001212046FFF7F5F90823032282212046A5
:10564000FFF7EFF94FF4077000F074FAC4F818028E
:10565000D4F8180208B901261CE0D4F81852D4F87E
:105660001C12086880470020C5F81402C5F818020B
:10567000207C40B94FF4007301212046D5F8042264
:10568000FFF73DFA06E0402301212046D5F8042229
:10569000FFF735FA3046BDE8F08170B504460E4696
:1056A000002581212046FFF7CCF901212046FFF794
:1056B000C8F982212046FFF7C4F9D4F8180250B186
:1056C000D4F81C1248688047D4F8180200F00AFA8F
:1056D0000020C4F81802284670BD70B505460C4677
:1056E000D5F81862207800F0600040B3202835D14A
:1056F000E088E0B1207800F0800060B1E288607856
:10570000D5F81C128B6831469847E2883146284606
:10571000FFF70FFF12E0607886F80002A07986F8A4
:105720000102E28831462846FFF720FF06E0607854
:10573000D5F81C1200228B68214698470FE060784C
:105740000A2802D00B2807D105E001225849284633
:10575000FFF7EFFE00E000BF00BF00BF00BF00BFCB
:10576000002070BD02460B46D2F81812D2F818027B
:1057700018B10020C1F8140270470220FCE770B590
:1057800004460E46D4F8185231462046FFF7C7F9B2
:10579000C5F80C02D4F8180248B1D5F80402D4F8C0
:1057A0001C12CA6805F503719047002070BD0220E5
:1057B000FCE770B50546D5F81842D5F81C0278B15B
:1057C00094F80002FF280BD094F8012294F800020C
:1057D000D5F81C128B6821469847FF2084F80002F8
:1057E000002070BD014643200880324870470146C2
:1057F00043200880304870470146432008802F48E6
:10580000704701460A2008802D4870470246022052
:1058100011B1C2F81C120020704710B50346D3F82E
:105820001842C4F80812C4F81022002010BD024625
:10583000D2F81832C3F804120020704770B505463C
:10584000D5F81842D5F8180290B1D4F8140268B906
:105850000120C4F81402B4F8100283B28121284652
:10586000D4F80822FFF73BF9002070BD0120FCE7C7
:105870000220FAE770B50446D4F81852D4F818029A
:1058800098B1207C40B94FF4007301212046D5F82F
:105890000422FFF734F906E0402301212046D5F821
:1058A0000422FFF72CF9002070BD0220FCE7000065
:1058B000930100200C010020C800002050010020AE
:1058C0008400002010B50446207818B934492046D9
:1058D000FFF7ADFF002010BD10B53248FFF7F2FF13
:1058E00010BD01460020704710B52E48FFF7F9FFA4
:1058F00010BD30B50446042915D007DC79B1012963
:105900000ED002290DD0032922D10BE020290BD083
:10591000212912D0222919D0232919D117E018E002
:1059200017E016E015E014E020781F4D05EBC000ED
:1059300015680560556845600BE020781A4D05EB49
:10594000C000056815604068506002E001E000E0BA
:1059500000BF00BF002030BD70B504460D4616469E
:1059600033462A4621460F48FFF7C3FF70BD70B586
:1059700005460E461446208882B231462846FEF778
:1059800087FB2846FFF776FF002070BD70B5044600
:105990000D462A4621460348FFF7E9FF70BD000087
:1059A0005810002004020020B401002040EA010346
:1059B0009B0703D009E008C9121F08C0042AFAD2C5
:1059C00003E011F8013B00F8013B521EF9D2704789
:1059D000D2B201E000F8012B491EFBD27047002231
:1059E000F6E710B513460A4604461946FFF7F0FFDE
:1059F000204610BD421C10F8011B0029FBD1801A63
:105A000070470000064C074D06E0E06840F00103D7
:105A100094E8070098471034AC42F6D3FAF7BEFB7F
:105A2000B85B0008D85B000870B58C1810F8015BF3
:105A300015F0070301D110F8013B2A1106D110F827
:105A4000012B03E010F8016B01F8016B5B1EF9D12B
:105A50002B0705D40023521E0DD401F8013BFAE7B1
:105A600010F8013BCB1A921C03E013F8015B01F81C
:105A7000015B521EF9D5A142D8D3002070BD0000B1
:105A8000014A024900F013B8D15A0008C4010020AD
:105A900002E008C8121F08C1002AFAD170477047F7
:105AA000002001E001C1121F002AFBD170472DE93F
:105AB000F04116460F460446002503E03946B0473C
:105AC000641C6D1C20780028F8D12846BDE8F081C0
:105AD00038B504468DF8000069460320ABBE204669
